:020000040800F2
:10000000F011002005010008511500089D1000089E
:100010004D150008350C0008DD2800080000000020
:10002000000000000000000000000000851900082A
:100030003D0E000800000000D9150008991A0008BC
:100040001F0100081F0100081F0100081F01000810
:100050001F0100081F010008410E0008710E000872
:10006000890E0008A10E0008B90E00081F01000843
:100070001F0100081F0100081F0100081F010008E0
:100080001F0100081F0100081F0100081F010008D0
:100090001F0100081F0100081F010008D10E000801
:1000A0001F0100081F0100081F0100081F010008B0
:1000B0001F0100081F010008FD1A00081F010008A9
:1000C0001F0100081F0100081F0100081F01000890
:1000D0001F0100083D260008472600085126000899
:1000E000590E00081F0100081F010008DFF810D09A
:1000F00000F04EFC00480047C1470008AFF3008005
:10010000F01100200648804706480047FEE7FEE75A
:10011000FEE7FEE7FEE7FEE7FEE7FEE7FEE7FEE7B7
:100120009D1A0008ED0000082DE9F0410024061B8F
:10013000254671F1000605DA01240027D0EB0700FF
:1001400067EB0101161E73F1000605DA0027D2EBFA
:100150000702012567EB030300F004FB86460E4609
:1001600017469C46AC4204D00025D0EB050E65EB4B
:10017000010624B10020D2EB000760EB030C7046AF
:1001800031463A466346BDE8F081D2B201E000F85C
:10019000012B491EFBD270470022F6E710B513462B
:1001A0000A4604461946FFF7F0FF204610BD30B559
:1001B00004460020034600E05B1C934203D2E05C4F
:1001C000CD5C401BF8D030BDF0B480EA0102D40F02
:1001D0004200B2EB410F02D20246084611464A00E5
:1001E00042D0C30DDDB2C1F3C752AD1A202D35DAAE
:1001F000C1F3160141F4000204B15242C5F12006D8
:1002000002FA06F12A411044B3EBD05F23D0C4B107
:10021000012DA0EBC35009DCF0BC4FF0004202EA14
:10022000C352DBB200F5000000F0F7BA400000F165
:10023000807000EBC350A0F1807040EAD17049009B
:1002400009E0490841EAC071A0EBC35000F5000085
:10025000400800EBC350F0BC00F0D6BA6142012266
:1002600002EB4101001BF6E7F0BC704781F0004152
:10027000AAE780F00040A7E780EA010210B502F08B
:100280000043400022D04A001FD0010E01EB126152
:10029000C0F35600C2F3560240F4000042F40002DC
:1002A000A0FB022000047F39140400D0401C50EA57
:1002B000124001D44000491EC2B20C0604EBD0101B
:1002C000401C4008802A02D003E0002010BD20F02E
:1002D0000100002900DA0020184310BD30B480EA84
:1002E000010202F0004530F0004221F0004013D03E
:1002F00090B1C30DD40DC2F31601C0F31600E41A79
:1003000041F4000140F400027D34914201D3641CA9
:1003100000E04900002C02DA30BC002070474FF4A6
:1003200000000023914201D3891A034340084FEA99
:100330004101F7D151B1914202D14FF0004105E0A6
:1003400002D24FF0010101E06FF0010103EBC45054
:10035000284430BC00F058BA2DE9FE4F804681EAAF
:100360000300C00F0C46009021F0004123F000452F
:10037000B8EB0200A94105D24046214690461C46F2
:100380000B46024623F00040104347D0270DC7F329
:100390000A00C3F30A510290401A019040286BDA18
:1003A000C3F3130040F4801B0098924620B1002351
:1003B000D2EB030A63EB0B0B01985946C0F14002E4
:1003C000504600F000FA06460D4650465946019A3E
:1003D00000F008FA10EB08006141002487EA11528E
:1003E00084EAE7731A4340D0009A62B3019A012A63
:1003F0004FEA075215DC001B61EB02014FF000428F
:1004000002EA0752CDE90042001C41F58011324654
:100410002B4600F03FFA03B0BDE8F08F404621467E
:10042000F9E7001B61EB0201001C41F58013001885
:100430005B412018A2F5001747EB030140EAD57095
:10044000B6196D4111E06D084FEA360645EAC075F0
:100450004FEA0752001B61EB0201001C41F58011BD
:1004600049084FEA30000019514132462B4603B08B
:10047000BDE8F04F00F0FFB90098012240000023D2
:10048000D0EB020263EBE073009821464FEAE07480
:10049000B8EB000061EB0401E9E783F000435BE7A0
:1004A00081F0004158E72DE9FE4F81EA030404F092
:1004B000004421F0004100944FF0000B23F0004372
:1004C00050EA01045ED052EA03045BD0C3F30A543D
:1004D000C1F30A552C44A4F2F3340194A0FB025456
:1004E000C1F3130141F48011C3F3130343F48013E8
:1004F00001FB024400FB034E840A970A44EA81543C
:1005000047EA8357A4FB076802958D0A05FB078518
:100510004FEA932C04FB0C542705029D4FEA065822
:1005200047EA1637B5EB08056EEB070C870E920EFF
:1005300047EA811742EA8312A7FB0201B6EB0B01DF
:1005400064EB00042B0D43EA0C335E1844EB1C50A3
:10055000DA465146E7FB0201C5F313044FEA0B33B9
:1005600043EA14534FEA0432019C43EA0603A4F120
:100570000C040294009CCDE900B400F08BF903B0A8
:10058000BDE8F08F00200146F9E72DE9F04D81EA42
:10059000030404F0004B21F0004514464FF0000A1C
:1005A00023F0004150EA050220D054EA01021DD098
:1005B000C5F30A570246C5F31303C1F31300C1F391
:1005C0000A5640F4801543F48013A7EB0608101B6D
:1005D000D64608F2FD3873EB050002D308F1010896
:1005E00001E092185B41B8F1000F03DA00200146E8
:1005F000BDE8F08D00204FF48011064684460EE0E1
:10060000171B73EB050705D3121B63EB05030643AA
:100610004CEA010C49084FEA300092185B4150EA5D
:100620000107EDD152EA030012D082EA040083EA06
:100630000501084305D0101BAB4106D2012200235F
:1006400006E000224FF0004302E06FF00102531079
:100650001AEB06004CEB085110EB0A0041EB0B01C2
:10066000BDE8F04D00F007B9C10F80EAE070084422
:10067000CA079623002100F0D0B896230022114625
:1006800000F0CBB800F0004220F00040C10DC0F3F4
:10069000160040F400007F2901DA002070479629F7
:1006A00003DCC1F19601C84001E096398840002A78
:1006B000F4D04042704720F00040C10DC0F3160056
:1006C00040F400007F2901DA00207047962903DCFE
:1006D000C1F19601C840704796398840704700F0D4
:1006E000004230F000400AD0C10D01F56071C0F346
:1006F000160042EA0151C20840071143704700202A
:100700000146704701F0004330B421F0004150EA47
:10071000010206D00A0DA2F56072C1F31301002A8E
:1007200002DC30BC00207047440F44EAC104C10021
:10073000E01830BC00EBC25000F066B8002801DBC6
:10074000C0F10040002901DBC1F100418142704746
:10075000002801DBC0F10040002901DBC1F10041AC
:10076000884270472DE9F05F0546002092469B467F
:1007700088460646814640241BE0284641464746B7
:10078000224600F017F953465A46C01A914110D339
:1007900011461846224600F016F82D1A67EB01089C
:1007A0004F4622460120002100F00DF817EB00090A
:1007B0004E41201EA4F10104DFDC484631462A46A2
:1007C0004346BDE8F09F202A04DB203A00FA02F1FC
:1007D000002070479140C2F1200320FA03F319432F
:1007E00090407047202A06DBCB17203A41FA02F0EE
:1007F00043EAE07306E041FA02F3D040C2F120027E
:1008000091400843194670470029A8BF7047401C13
:10081000490008BF20F00100704710B4B0FA80FC16
:1008200000FA0CF050EA010404BF10BC704749B153
:10083000CCF1200421FA04F411FA0CF118BF0121C3
:1008400021430843A3EB0C01CB1D4FEA00614FEAA3
:10085000102042BF002010BC704700EBC350104472
:100860000029A4BF10BC7047401C490008BF20F0FD
:10087000010010BC704710B5141E73F1000408DAB3
:10088000401C41F1000192185B411A4301D120F054
:10089000010010BD2DE9F04D92469B4611B1B1FA11
:1008A00081F202E0B0FA80F220329046FFF78BFF2F
:1008B00004460F4640EA0A0041EA0B0153465A46F5
:1008C000084313D0114653EA010019D0C8F1400281
:1008D000504600F06FF805460E46504659464246CF
:1008E000FFF771FF084305D0012004E02046394698
:1008F000BDE8F08D0020054346EAE0762C433743FF
:100900000A986305E40AA0EB08000022FD0A44EA05
:1009100047540A3002D500200146E9E701051019C5
:100920006941DDE9084500196941BDE8F04DA2E7DC
:1009300070B521F0004303430CD0C1F30A550024E5
:10094000D5EB040564EB0403D617AD1AB34102DB03
:100950000020014670BD201841EB025170BD00001F
:1009600030B5041E71F1000404DB4FF00044404236
:1009700064EB0101141E73F1000405DB1C464FF00B
:100980000043524263EB04038B4208BF824230BDF6
:10099000064C074D06E0E06840F0010394E80700CC
:1009A00098471034AC42F6D3FFF7A4FB507100080F
:1009B00070710008202A04DB203A21FA02F000219D
:1009C000704721FA02F3D040C2F12002914008435F
:1009D000194670472DE9F04D00231A461B1A8A412B
:1009E00003DB00200146BDE8F08DC1F30A52C1F3DC
:1009F000130141F480154FF0000BD10702D100180C
:100A00006D41521E0027044640F2FF11384601EBAB
:100A1000620A3E468046024600204FF48011FFF7EE
:100A2000C9FFC2197141BB1846EB0100B4EB030CBE
:100A300075EB000C04D3E41A65EB000517460E466F
:100A4000241908F101006D4180463428E3DDF919CD
:100A500046EB0600091BA84103D24FF0FF321346B4
:100A600001E0002213461BEB070046EB0A51BDE8EC
:100A7000F04DFFF700BF70B58C1810F8015B15F052
:100A8000070301D110F8013B2A1106D110F8012B00
:100A900003E010F8016B01F8016B5B1EF9D12B0725
:100AA00005D40023521E0DD401F8013BFAE710F8DB
:100AB000013BCB1A921C03E013F8015B01F8015BC8
:100AC000521EF9D5A142D8D3002070BD21B1826851
:100AD00042F00102826003E0826822F0010282603B
:100AE000704721B1826842F48072826003E08268BC
:100AF00022F4807282607047014600208A6802F00A
:100B000004020AB1012000E00020704730B502461F
:100B10000020002350680F4C20400D790C6844EAF7
:100B200005242043506090680B4C2040D1E90254CA
:100B30002C434D7944EA450420439060D06A20F468
:100B400070000C7C641EE4B2234340EA0350D06280
:100B500030BD0000FFFEF0FFFDF7F1FFF0B50446E9
:100B60000D4600200021092D11DDE068A5F10A06DF
:100B700006EB4607072606FA07F18843A5F10A06A1
:100B800006EB460603FA06F10843E0600CE0206934
:100B900005EB4507072606FA07F1884305EB4506EE
:100BA00003FA06F108432061072A0FDA606B561E2C
:100BB00006EB86071F2606FA07F18843561E06EB4A
:100BC000860605FA06F10843606322E00D2A0FDA73
:100BD000206BD61F06EB86071F2606FA07F188430F
:100BE000D61F06EB860605FA06F10843206310E0DF
:100BF000E06AA2F10D0606EB86071F2606FA07F14A
:100C00008843A2F10D0606EB860605FA06F10843B5
:100C1000E062F0BD21B1826842F4A002826003E08C
:100C2000826822F4A00282607047816841F004016A
:100C30008160704700BFFEE721B1026842F0010207
:100C4000026004E002684FF6FE731A4002607047CB
:100C500001684FF6FE7211400160002101604160A1
:100C60008160C1604B49884208D14A4908394968C6
:100C700041F00F01474A083A51608AE04549143172
:100C8000884208D143490839496841F0F001414A96
:100C9000083A51607DE03F492831884208D13D49FA
:100CA0000839496841F470613A4A083A516070E085
:100CB00038493C31884208D136490839496841F4FD
:100CC0007041344A083A516063E0324950318842F9
:100CD00008D130490839496841F470212D4A083A51
:100CE000516056E02B496431884208D129490839BE
:100CF000496841F47001274A083A516049E02549A2
:100D00007831884208D123490839496841F0706137
:100D1000204A083A51603CE01F49884206D1011F31
:100D2000096841F00F01021F116032E01A491431C5
:100D3000884208D11849091F096841F0F001164A94
:100D4000121F116025E014492831884208D1124948
:100D5000091F096841F470610F4A121F116018E001
:100D60000D493C31884208D10B49091F096841F4FB
:100D70007041094A121F11600BE007495031884247
:100D800007D10549091F096841F47021024A121F61
:100D9000116070470800024008040240014648689C
:100DA00080B2704710B50022026847F6F0739A438C
:100DB0000C6A8B6823430C6923434C6923438C6979
:100DC0002343CC6923434C6A23438C6A23431A434D
:100DD0000260CB6843600B6883604B68C36010BDE2
:100DE0004160704738B5002000906B4601227521A4
:100DF000682003F03FFC03F05BFEE0B9782004F0CC
:100E000031FC782003F026FDC82004F0DDFB02F061
:100E100069FC094803F099FC044602F0BDFE40F26B
:100E2000731002F007FBC82002F0E6FD04F0E8FCB6
:100E3000012004F0C5FA38BD900200207047000080
:100E400010B5034800F050F802480068804710BD14
:100E5000FFFF0F001C00002010B5034800F044F80D
:100E600002480068804710BDFFFF0F001C000020F3
:100E700010B5034800F038F802480068804710BDFC
:100E8000FFFF0F001C00002010B5034800F02CF8F5
:100E900002480068804710BDFFFF0F001C000020C3
:100EA00010B5034800F020F802480068804710BDE4
:100EB000FFFF0F001C00002010B5034800F014F8DD
:100EC00002480068804710BDFFFF0F001C00002093
:100ED00010B5034800F008F802480068804710BDCC
:100EE000FFFF0F001C000020014908607047000050
:100EF000140401402DE9F04102460025002600209F
:100F000000230024002791F803C00CF00F0591F88E
:100F100003C00CF0100CBCF1000F03D091F802C01C
:100F20004CEA050591F800C0BCF1000F31D01468FF
:100F300000202BE04FF0010C0CFA00F3B1F800C0D8
:100F40000CEA03069E4220D183004FF00F0C0CFAEE
:100F500003F7BC4305FA03FC4CEA040491F803C010
:100F6000BCF1280F06D14FF0010C0CFA00FCC2F8BE
:100F700014C00AE091F803C0BCF1480F05D14FF04E
:100F8000010C0CFA00FCC2F810C0401C0828D1D398
:100F90001460B1F800C0BCF1FF0F34DD54680020CC
:100FA0002EE000F1080C4FF0010808FA0CF3B1F83C
:100FB00000C00CEA03069E4221D183004FF00F0CC3
:100FC0000CFA03F7BC4305FA03FC4CEA040491F85D
:100FD00003C0BCF1280F05D100F1080C08FA0CF889
:100FE000C2F8148091F803C0BCF1480F07D100F19A
:100FF000080C4FF0010808FA0CF8C2F81080401CE9
:101000000828CED35460BDE8F0810000F0B50A4650
:10101000002300240021002500F00046B6F1004F17
:1010200002D11D4EF16901E01B4E7168C0F303450A
:1010300083B200F44016B6F5401F08D121F070616C
:10104000154E766826F07066134F7E6012E000F44D
:101050008016B6F5801F06D1032606FA05F4A143D3
:1010600041F0706106E0460D360103FA06F6B14321
:1010700041F0706122B1460D360103FA06F63143A4
:1010800000F00046B6F1004F02D1034EF16101E0DD
:10109000014E7160F0BD00000000014000BFFEE79E
:1010A00070B505460E46002400F0EAF8284600F028
:1010B000B5F8641C00F03CF9304600F0AFF8641C51
:1010C00000F036F900F0DCF8691CC8B200F0A6F8B0
:1010D000641C00F02DF9002000F068F8044600F0D0
:1010E00003F9204670BD000010B500200E490860CD
:1010F0000E48006820F0F0000C49086008460068BF
:1011000040F03000086000200949C1F8A401012026
:1011100002F0A8F801200449086002F0A3F80020BA
:101120000349C1F8A00110BDA0812142040C014077
:101130000080214208B50121082000F07BFA4FF41D
:101140004070ADF8000010208DF8030003208DF8EA
:10115000020069460148FFF7CDFE08BD000C0140C2
:1011600010B500200E4908600E48006820F0F0001D
:101170000C4908600846006840F030000860012013
:101180000949C1F8A40102F06DF801200449086082
:1011900002F068F800200449C1F8A00110BD000069
:1011A000A0812142040C01400080214270B5054617
:1011B00000241748006820F0F00015490860084630
:1011C000006840F080000860002616E00020114909
:1011D0000860022002F046F801200F49C1F8A00182
:1011E0006006040E0B487C38006808B1601CC4B26D
:1011F000022002F037F8701CC6B2082EE6DB15B1EB
:10120000FFF772FF01E0FFF7ABFF204670BD000063
:10121000040C0140A08121420080214270B50446A7
:101220001448006820F0F000124908600846006881
:1012300040F03000086000200F490860002516E0EB
:10124000E0090D49091D08606006040E012002F046
:1012500009F801200949C1F8A00102F003F80020B3
:1012600005490860012001F0FDFF681CC5B2082D8A
:10127000E6DB70BD040C0140A081214200802142C8
:1012800010B51648006820F0F000144908600846C0
:10129000006840F0300008600120114908601148E2
:1012A000D0F8240108B9002010BD01200C49091F05
:1012B000086001F0D7FF00200A49C1F8A4010848DE
:1012C0008038006808B10020EEE7012001F0CAFF75
:1012D00000200349091F08600120E5E7040C0140D4
:1012E000A48121420080214210B50E48006820F000
:1012F000F0000C4908600846006840F030000860C3
:101300000020094908600949C1F8A401012001F041
:10131000A9FF0120044908600449C1F8A40101F0B3
:10132000A1FF10BD040C0140A08121420080214298
:1013300010B500241548006820F0F000134908603B
:101340000846006840F080000860012010490860ED
:1013500001F088FF01200F49C1F8A00101F082FFD0
:101360000AE0601CC4B2322C03DDFFF7BDFF002091
:1013700010BD012001F076FF054880380068002884
:10138000EFD10349091F08600120F1E7040C014077
:10139000A48121420080214270B505460E461446C4
:1013A00031462846FFF77CFE2070012070BDF8B55D
:1013B00006460F4614461D466A4639463046FFF734
:1013C000EBFF2DB10120A0409DF80010084305E07F
:1013D0000120A0409DF8001021EA0000C0B200905A
:1013E0009DF800203946304600F036F8F8BD2DE96A
:1013F000F8430746884614461D46089E6A464146FD
:101400003846FFF7C9FF28B3601CFF2101FA00F03E
:10141000C4F108012944491EFF220A41104300F08B
:10142000FF09C5F1080006FA00F0C6B2C4F10700D2
:1014300006419DF8000000EA090000909DF80000B8
:10144000304300909DF800204146384600F004F8F3
:10145000BDE8F8830020FBE737B504460D4602AB34
:1014600001222946204600F001F83EBD2DE9F04159
:1014700080460D4616461F460024FFF701FF4046F2
:10148000FFF7CCFEFFF754FF2846FFF7C7FEFFF734
:101490004FFF00BF06E0385DFFF7C0FEFFF748FFD3
:1014A000601CC4B2B442F6DBFFF71EFF0120BDE8AA
:1014B000F08110B5022000F010F8032000F021F8B0
:1014C000002000F014F8002000F037F8002000F0B1
:1014D0002BF8002000F01FF810BD38B50446032398
:1014E00002226B21D0200094FFF781FF38BD38B570
:1014F0000446022304221C21D0200094FFF777FF2A
:1015000038BD38B50446022304221B21D0200094A4
:10151000FFF76DFF38BD10B5044623460122372181
:10152000D020FFF744FF10BD10B504462346052226
:101530006A21D020FFF73BFF10BD10B504462346BB
:1015400006226B21D020FFF732FF10BD00BFFEE75F
:101550007047000070B5002100230F22C47804B347
:10156000154C246804F4E064C4F5E064210AC1F178
:101570000403CA40447804FA03F1847814402143F8
:1015800009010E4C0678A155047804F01F050124CA
:10159000AC4005786D11AD0005F1E025C5F80041BE
:1015A00009E0047804F01F050124AC40044D0678DE
:1015B000761145F8264070BD0CED00E000E400E037
:1015C00080E100E002490143024A116070470000D7
:1015D0000000FA050CED00E0704700000146002015
:1015E000034A506820F440400843506070470000B0
:1015F0000010024029B1064A52690243044B5A6165
:1016000004E0034A52698243014B5A61704700006B
:101610000010024029B1064AD2690243044BDA6144
:1016200004E0034AD2698243014BDA61704700004B
:101630000010024029B1064A92690243044B9A61A4
:1016400004E0034A92698243014B9A6170470000AB
:101650000010024030B500210022002400232D4D4F
:101660006D6805F00C0121B1042905D0082923D1AA
:1016700005E0294D056022E0274D05601FE0254D5E
:101680006D6805F47012234D6D6805F480340225F1
:1016900005EB92421CB9214D554305600BE01D4DF1
:1016A0006D6805F400351DB11C4D5543056002E021
:1016B000194D5543056002E0174D056000BF00BF9E
:1016C000144D6D6805F0F0010909154D6B5C056856
:1016D000DD4045600F4D6D6805F4E061090A104D6D
:1016E0006B5C4568DD4085600A4D6D6805F46051AE
:1016F000C90A0B4D6B5C4568DD40C560054D6D68E2
:1017000005F44041890B074D6B5CC568B5FBF3F5EB
:10171000056130BD0010024000127A0000093D0052
:1017200000000020100000202DE9F04F8FB00CA821
:1017300089490DAB08AACDE900108849884801F015
:10174000DDFF8548008800F4807000287ED008986E
:10175000FEF78AFF04464FF09D41FEF7BFFD814929
:1017600008600998FEF780FF04464FF09D41FEF7A0
:10177000B5FD7D4908600A98FEF776FF04464FF0F4
:101780009D41FEF7ABFD794908600B98FEF76CFFB1
:1017900004464FF09D41FEF7A1FD75490860714870
:1017A00001684FF08040FEF767FD06906F480168C2
:1017B0000698FEF761FD82466B4801684FF0404095
:1017C000FEF75AFD06906A4801680698FEF754FD38
:1017D00083465146FEF7F8FC0790FEF780FF8046EF
:1017E00001F0B0F906464FF06632624BFEF75BFE41
:1017F0000446FEF787FF604908605C4801684FF0C7
:101800008040FEF739FD0390584801680398FEF7C1
:1018100033FD8246544801684FF04040FEF72CFDEE
:101820000390514801680398FEF726FD8346514610
:10183000FEF71CFD81464FF07E51FEF7C5FC0446C5
:10184000FEF74DFFCDE90401464800E081E0016864
:101850004FF08040FEF710FD83464348016858462C
:10186000FEF70AFD8146414801684FF08040FEF7CF
:1018700003FD83463E4801685846FEF7FDFC82465C
:101880004946FEF7A1FC0446FEF729FF0746DDE9BD
:10189000042301F09FFB4FF06632364BCDE9060181
:1018A000FEF701FE0546FEF72DFF3449086030487B
:1018B00001680068FEF7E0FC03902C4801680068AE
:1018C000FEF7DAFC0290284801680068FEF7D4FCB5
:1018D0008346244801680068FEF7CEFC5946019013
:1018E000FEF772FC82460299FEF7C0FC814603991E
:1018F000FEF7BCFC0446FEF7F2FECDE904011C48ED
:10190000016818480068FEF7B7FC8246174801686E
:1019100015480068FEF7B0FC83465146FEF754FCBC
:1019200081464FF08041FEF7A7FC0446FEF7D7FE44
:101930000746DDE9042301F04DFB4FF066320D4B05
:10194000CDE90601FEF7AFFD0546FEF7DBFE0C49CB
:1019500008600FB0BDE8F08F700200206A0200201E
:1019600064020020800200208402002088020020FF
:101970008C02002066A64C407402002078020020F1
:101980007C020020704710B500F002F810BD000086
:101990000CB50020019000903348006840F480307E
:1019A0003149086000BF3048006800F40030009002
:1019B0000198401C0190009818B90198B0F5A06FEB
:1019C000F1D12948006800F4003010B101200090E6
:1019D00001E0002000900098012843D123480068CE
:1019E00040F01000214908600846006820F003001C
:1019F00008600846006840F0020008601A48406825
:101A0000194948600846406848600846406840F404
:101A1000806048600846406820F47C1048600846B2
:101A2000406840F4E81048600846006840F0807064
:101A3000086000BF0C48006800F000700028F9D072
:101A40000948406820F0030007494860084640689C
:101A500040F00200486000BF0348406800F00C00FE
:101A60000828F9D10CBD00000010024000200240FF
:101A7000042808D14FF0E021096941F004014FF03A
:101A8000E022116107E04FF0E021096921F0040133
:101A90004FF0E022116170477047000010B5134805
:101AA000006840F00100114908600846406810498C
:101AB00008400E494860084600680E4908400B4936
:101AC00008600846006820F48020086008464068E6
:101AD00020F4FE0048604FF41F008860FFF753FFBA
:101AE0004FF000600449086010BD00000010024083
:101AF0000000FFF8FFFFF6FE08ED00E02DE9F041E1
:101B00009EB000240121FE4800F02EFDFD48006833
:101B1000632801D1002002E0FA480068401CF9491E
:101B2000086000201A901B901C901D901690179032
:101B30001890199012901390149015900E900F9089
:101B4000109011900A900B900C900D9006900790B9
:101B50000890ED4AED4B0990CDE9032002930590E2
:101B6000EB48EC49EC4BED4ACDE90010EC49032081
:101B700003F022FFEB4800F0BFFFEA480088FEF7C1
:101B80007CFDE94908600020E849086000240EE077
:101B9000E74951F82400E749FEF7A0FB0546E34872
:101BA00001682846FEF710FBE0490860641C052C1C
:101BB000EEDB042406E0601EDD4951F8200041F808
:101BC0002400641E002CF6DCD7480068D849086061
:101BD00002F052FFD849D9480068FEF7F5FAD84913
:101BE00008600020D749086000240EE0D64951F86B
:101BF0002400D049FEF772FB0546D248016828460A
:101C0000FEF7E2FACF490860641C052CEEDB0424E1
:101C100006E0601ECC4951F8200041F82400641E03
:101C2000002CF6DCC6480068C7490860C748C849A8
:101C3000C84AC94BCDE90932CDE90B10C748C8499C
:101C4000C84AC94BCDE90532CDE90710C748C84994
:101C5000C84AC94BCDE90132CDE90310C748C84B8A
:101C6000C84AC9490090022004F032F9C449096801
:101C7000C14A12688818FEF7F7FCC4490860BA49DF
:101C80000968B74A12681144B34A12688818FEF707
:101C9000EBFCBF490860AE480068FEF7E5FCBD49B3
:101CA0000860BD48007838B99D480078002802D007
:101CB0000120B94908706CE3B7480078012875D154
:101CC0009648007810B10220B3490870B348016803
:101CD00096480068FEF732FD03D294480068AF4989
:101CE0000860AF48016891480068FEF731FD03D2F3
:101CF0008E480068AA490860AA48016891480068AF
:101D0000FEF71CFD03D28F480068A6490860A6486C
:101D100001688C480068FEF71BFD03D28948006803
:101D2000A1490860A148016898480068FEF706FDCF
:101D300003D2964800689D4908609D480168934811
:101D40000068FEF705FD03D29048006898490860D6
:101D5000984801688E480068FEF7F0FC03D28C4872
:101D60000068944908609448016889480068FEF753
:101D7000EFFC03D2864800688F4908608F480168ED
:101D800084480068FEF7DAFC03D2824800688B4979
:101D900008608B4801687F480068FEF7D9FC8AD24A
:101DA0007C48006886490860F3E2FFE77A480078DB
:101DB000022807D1584800780028F5D0032076493A
:101DC0000870E6E2744800780328EDD17348016892
:101DD00073480068FEF74AFA0546704801685348A0
:101DE0000068FEF743FA06462946FEF777FA75497A
:101DF00008606C4801686C480068FEF737FA0746CF
:101E0000684801684F480068FEF730FA8046394656
:101E1000FEF764FA06464FF08041FEF72DFA0546BC
:101E20004FF07E51FEF722FA674908605F4801686B
:101E30005F480068FEF71AFA05465C480168534897
:101E40000068FEF713FA06462946FEF747FA5F498F
:101E500008605848016858480068FEF707FA0546C8
:101E6000544801684A480068FEF700FA06462946C9
:101E7000FEF734FA56490860504801685048006837
:101E8000FEF7F4F905464D48016842480068FEF740
:101E9000EDF906462946FEF721FA4E490860002171
:101EA00048480068FEF74AFC03D200204549086014
:101EB0000AE04FF07E5143480068FEF749FC03D228
:101EC0004FF07E503F49086043493F480068FEF7A5
:101ED00035FC03D240483C4908600AE04FF07E518F
:101EE00039480068FEF734FC03D24FF07E50364983
:101EF0000860002135480068FEF720FC73D26EE0D0
:101F000000080040140100201C020020F8010020FD
:101F1000F4010020F00100201B0100201A01002024
:101F2000190100201C0100202001002024010020B4
:101F30001C0D00200000A0400000B442F40000206E
:101F40003401002038010020300D002088010020DD
:101F500084010020800100207C0100207801002005
:101F600074010020700100206C0100206801002035
:101F700064010020600100205C0100205801002065
:101F800054010020500100204C0100208C01002051
:101F9000900100209401002018010020C8010020B9
:101FA000CC010020D0010020D4010020D801002065
:101FB000DC010020E0010020E4010020E801002015
:101FC000EC010020280100203C01002098010020A5
:101FD0009C010020A0010020000080BF03E0002041
:101FE000FD4908600AE04FF07E51FB480068FEF7AB
:101FF000AFFB03D24FF07E50F74908600021F7484D
:102000000068FEF79BFB03D20020F44908600AE059
:102010004FF07E51F1480068FEF79AFB03D24FF073
:102020007E50EE4908600021ED480068FEF786FB0F
:1020300003D20020EA4908600AE04FF07E51E848E8
:102040000068FEF785FB03D24FF07E50E44908603C
:10205000E4480168E4480068FEF708F9E3490860CD
:10206000E3480168E3480068FEF700F9E2490860C8
:10207000E2480168D8480068FEF7F8F8E0490860CF
:10208000E0480168D5480068FEF7F0F8DE490860CE
:10209000DE480168D2480068FEF7E8F8DC490860CD
:1020A000D1480068CF490860D2480068D04908602C
:1020B000C9480068D1490860C8480068D14908602B
:1020C000C7480068D1490860D2480168C94800681B
:1020D000FEF73EFB01D8012000E00020CE49087049
:1020E000CE480168C4480068FEF732FB01D80120E1
:1020F00000E00020CA490870CA480168B648006874
:10210000FEF726FB01D8012000E000200546FEF77F
:10211000ABFAC5490860C3480168B0480068FEF7DB
:1021200017FB01D8012000E000200546FEF79CFACD
:10213000BE490860BB480168A9480068FEF708FB73
:1021400001D8012000E000200546FEF78DFAB849CD
:1021500008604FF07E51B4480068FEF7EFFA0DD0EA
:102160004FF07E51B1480068FEF7E8FA06D04FF014
:102170007E51AF480068FEF7E1FA3ED1AD480068F5
:10218000401CAC4908604FF07E51A7480068FEF73C
:10219000D5FA0BD10021A6480068FEF7CFFA05D189
:1021A000A5480068401CA449086045E04FF07E51F6
:1021B0009D480068FEF7C2FA0CD14FF07E519C4852
:1021C0000068FEF7BBFA05D19C480068401C9B499B
:1021D000086031E0002194480068FEF7AFFA2BD187
:1021E0004FF07E5192480068FEF7A8FA24D1944837
:1021F0000068401C924908601EE092480068401C3C
:10220000904908608448007848B9854800780128DA
:1022100005D18D480068401C8B4908600CE07E4861
:102220000078012808D17E480078012804D1874829
:102230000068401C854908607E480068282810D145
:102240000020834908707B4908607B4908607B490E
:1022500008607B4908607C4908607C4908607949CE
:1022600008607B480078B0B976480068032811D12F
:1022700004207749087000206E4908606E490860A4
:102280006E4908606E4908606F4908606F490860D0
:102290006C4908607DE068480068012812DB012075
:1022A0006B4908700020634908606349086063490E
:1022B00008606349086064490860644908606149CE
:1022C000086066E063480068FEF7DCF95B4909686E
:1022D000884212DC02205E490870002055490860DF
:1022E00055490860554908605549086056490860D5
:1022F00056490860534908604BE05148006801287E
:1023000012DB03205249087000204A4908604A49FC
:1023100008604A4908604A4908604B4908604B49CF
:1023200008604849086034E04A480068FEF7AAF9A6
:1023300045490968884212DC04204549087000209C
:102340003C4908603C4908603C4908603C490860D9
:102350003D4908603D4908603A49086019E03D4838
:102360000068FEF78FF939490968884211DC0520B9
:102370003749087000202F4908602F4908602F490D
:1023800008602F49086030490860304908602D49CD
:1023900008603149086800EBD0714910A0EB410199
:1023A000C9B92B480078FEF768F905461848016856
:1023B0000B48026829480068294B1B68CDE91A3090
:1023C000CDE91C21274801680F480068034A1268BC
:1023D000254B1B684AE095E0980100209C010020F5
:1023E000A00100202C010020280100203001002045
:1023F000400100203C01002044010020A4010020F5
:10240000B0010020A8010020B4010020AC01002090
:10241000B8010020F401002048010020F80100204C
:1024200049010020F0010020BC010020C001002073
:10243000C401002000020020040200200802002045
:102440000C020020180200201002002014020020BC
:10245000FC0100201C02002014010020EC010020DF
:10246000E801002094010020E4010020CDE91632AB
:10247000CDE918012548026825480168254800680B
:10248000254B1B68CDE91230CDE9141223480068B2
:1024900023490968234A1268234B1B68CDE90E3291
:1024A000CDE910102148006821490968214A1268C5
:1024B000214B1B68CDE90A32CDE90C101F4800689A
:1024C0001F490A681F4909681F4B1B68CDE906317F
:1024D000CDE908201D48016800201D4A1268CDE999
:1024E0000225CDE904011B4800681B490968CDE9B4
:1024F00000101A4803781A4802781A480178032015
:1025000003F0EEFB1EB0BDE8F0810000E00100200A
:1025100090010020B001002098010020DC01002083
:10252000D80100208C010020440100203C01002043
:10253000D4010020D001002038010020300100200B
:1025400028010020CC010020C80100202401002027
:10255000C4010020C0010020BC010020490100206E
:102560004801002018010020CA430282704721B1AF
:10257000028842F00102028004E002884FF6FE73F6
:102580001A40028070471AB183890B43838102E0AD
:1025900083898B4383817047002202881D4B9842B8
:1025A0000ED01D4B98420BD0B0F1804F08D01B4B82
:1025B000984205D01A4B984202D01A4B984204D147
:1025C0004FF68F731A404B881A43174B984207D027
:1025D000164B984204D04FF6FF431A40CB881A435B
:1025E00002808B8883850B8803850A4B98420BD029
:1025F000094B984208D00E4B984205D00D4B98429B
:1026000002D00D4B984201D10B7A038601238382BD
:1026100070470000002C01400034014000040040DD
:1026200000080040000C0040001000400014004072
:1026300000400140004401400048014010B5012025
:1026400000F0F0F810BD10B5022000F0EBF810BD5E
:1026500010B5032000F0E6F810BD10B500220023ED
:1026600040F66A14A14200D100BF0A12012494402E
:10267000A3B2DC43048010BD21B1828942F4005230
:10268000828104E082894DF6FF731A40828170478F
:102690001AB1838A0B43838202E0838A8B4383824D
:1026A000704770B50246002400230025002040F644
:1026B0006A16B14200D100BFC1F3421501F01F03F9
:1026C000012606FA03F3012D02D19689334006E074
:1026D000022D02D1168A334001E0968A33400C1253
:1026E000012606FA04F41688344013B10CB1012017
:1026F00000E0002070BDF0B5034600240026002550
:10270000002040F66A17B94200D100BF1846C1F355
:10271000421401F01F06012707FA06F5012C01D12A
:102720000C3004E0022C01D1103000E014301AB15A
:1027300007682F43076002E00768AF430760F0BDFA
:102740002DE9F04786B005460E460024A24600BF9C
:10275000A1460027B08900B100BF2F462C8A4CF655
:10276000FF700440F08804432C82AC894EF6F310CD
:102770000440B08831890843718908430443AC811F
:10278000AC8A4FF6FF400440B0890443AC8201A8F4
:10279000FEF760FF1F48874202D1DDF810A001E07C
:1027A000DDF80CA0A88900F4004040B10AEBCA0093
:1027B00000EB0A1031684900B0FBF1F807E00AEBC2
:1027C000CA0000EB0A1031688900B0FBF1F8642000
:1027D000B8FBF0F004012009642101FB1089A889ED
:1027E00000F4004040B1322000EBC900B0FBF1F032
:1027F00000F00700044308E0322000EB09106421D8
:10280000B0FBF1F000F00F0004432C8106B0BDE8EE
:10281000F08700000038014001468888C0F30800B6
:102820007047000070B5044600260025641E254947
:1028300051F8240040F22441FFF733FF002840D034
:10284000204951F82400FFF7E7FF1F4951F8240001
:102850000021FEF7F1F91C4951F82400FEF79EFA19
:10286000C0F1C800C6B2194850F82400066000BF85
:102870000DE004EBC40000EB0410154901EBC000AF
:10288000405D144951F824104855681C85B2B54282
:1028900004DA114850F82400A842EAD8094951F84E
:1028A000240040F22441FFF7D8FE074951F82400E4
:1028B000C821FEF795FA044951F824000121FEF7DA
:1028C000BBF970BD20000020DC00002004070020C0
:1028D000B8020020DC060020F006002000BFFEE762
:1028E000490050EAC12018BF04204A0D18BF40F02B
:1028F000010040F2FF72B2EB515F08BF40F00200EE
:10290000012808BF052070472DE9F0414F1E00EB5C
:10291000C7010446D1E9000115461E4637F00602FC
:102920000DD02A463346FDF7BEFD7F1E04EBC703DC
:10293000D3E90023FDF710FD37F00602F1D1022F95
:1029400025D0042F13D0062F18BFBDE8F0812A46EA
:102950003346FDF7A8FDD4E90A23FDF7FDFC2A461E
:102960003346FDF7A0FDD4E90823FDF7F5FC2A4620
:102970003346FDF798FDD4E90623FDF7EDFC2A4622
:102980003346FDF790FDD4E90423FDF7E5FC2A4624
:102990003346FDF788FDD4E90223FDF7DDFC2A4626
:1029A0003346FDF780FDD4E90023BDE8F041FDF793
:1029B000D3BC0122FDF7BCBFFDF7CEBC00221346FD
:1029C00010461146FDF7E1BD024A00201107FDF750
:1029D000AFBF000001FDFFFF02E008C8121F08C1E1
:1029E000002AFAD170477047002001E001C1121F90
:1029F000002AFBD1704700000149086070470000C1
:102A0000A00200202DE9FE4F06460F46002568462D
:102A100001F0CCFA002442E056F8240057F82410C4
:102A2000A0EB010ABAF1000F01DB514601E0CAF147
:102A300000010846FDF718FE83464FF08F41FDF771
:102A40004DFC80465DF824000021FDF777FE16D08E
:102A50005DF824104046FDF741FC82464FF07E5160
:102A6000FDF704FC814629F0004A0F48416A5046B0
:102A7000FDF76EFE12D20120A04005430EE00A4889
:102A8000C1694046FDF75AFE05D30748016A404632
:102A9000FDF75EFE02D20120A0400543641C032C1A
:102AA000BADB2846BDE8FE8F4064000800B585B05B
:102AB00001214802FEF7BEFD0020009001208DF8A4
:102AC00004008DF805008DF81000002003904FF4ED
:102AD0006020029069460748FEF718F84FF440401E
:102AE000FEF77CFD0523012200210248FEF736F89F
:102AF00005B000BD002401400149098801807047EC
:102B00003402002010B501F01BFD00F045FCFFF77A
:102B1000CDFF01210A48FDF7E4FF01210848FDF738
:102B2000D5FF0748FEF781F800BF0548FDF7E4FF31
:102B30000028FAD101210248FEF76CF810BD000010
:102B4000002401402DE9F04D8D4F21F0004A86B060
:102B500005460C46BA452ADBAAEB070028430AD0F3
:102B60008848824501DC1AD1CDB106B02846BDE8BF
:102B7000F04DFFF71EBF844A844B2846FDF793FCB7
:102B800007460E46824A834B28462146FDF78BFCBA
:102B900006B03A463346BDE8F04DFDF7DDBB0120F7
:102BA000FFF72AFF06B0BDE8F04DFFF707BF7A48F0
:102BB000824542DABAF1795F0BDA2846FFF790FED8
:102BC000042808BFFFF700FF284606B02146BDE8ED
:102BD000F08D2A460B461046FDF765FC83460246FB
:102BE0006E480E460B4606217844FFF78DFE5A4686
:102BF0003346FDF758FC804669488A465A463346B4
:102C000004217844FFF780FE5A463346FDF74BFC1B
:102C100000223B46FDF7A0FB02460B4640465146CC
:102C2000FDF7B3FC2A462346FDF73DFC06B02A46D5
:102C30002346BDE8F04DFDF78FBB284624F0004148
:102C400000223D463B46FDF72BFC4FF0FF32FDF7DF
:102C50006FFE0646024653480F460B46062178444F
:102C6000FFF752FE32463B46FDF71DFCCDE9000161
:102C70004D4832463B4604217844FFF745FE324634
:102C80003B46FDF710FC00222B46FDF765FB834613
:102C900002913046394602F043FE804643480D46D5
:102CA000504517DCDDE900015A46029BFDF76DFC3B
:102CB00042462B46FDF7F7FB42462B46FDF74CFB01
:102CC0000122FDF735FE304A304BFDF7E6FB304A76
:102CD000304B4CE04FF0000A52460B464046FDF7A1
:102CE0003BFBCDE9031052462B4610461946FDF733
:102CF000DAFB32463B46FDF7D3FBDDE90332FDF755
:102D000044FC06460F46DDE900015A46029BFDF7EA
:102D10003CFC83460091012230463946FDF708FE0F
:102D2000194A1A4BFDF7BCFB06460F4601224046E6
:102D30002946FDF7FDFD5A46009BFDF7B4FB3246E0
:102D40003B46FDF7AAFB06460F46012250462946A0
:102D5000FDF7EEFD0E4DDFF858802A464346FDF79D
:102D60009FFB32463B46FDF79BFB2A464346FDF759
:102D700097FB002CD8BF81F0004106B0BDE8F08D74
:102D80000000F03F0000F07F075C143326A6913C62
:102D9000182D4454FB21F93F0000E03F744400002B
:102DA0008A440000FE430000144400003333EF3F28
:102DB000FB21E93F2DE9F84F04460D4621F0004084
:102DC00000917349814211DC7249884201DC06D1CD
:102DD0002CB120462946BDE8F84FFFF7EABD6E4802
:102DE000002DCCBF6D496E49BDE8F88F6D49814219
:102DF00011DD6D498142D8BF4FF0FF366DDD2046B1
:102E00002946FFF76DFD042808BFFFF7DDFD2046CA
:102E10002946BDE8F88F6549654F25F00045814298
:102E200033DD6449814219DD002632464FF080438C
:102E300020462946FDF790FA80468A460122204620
:102E40002946FDF775FD00223B46FDF726FB42466D
:102E50005346FDF79AFB04460D463EE0012600224C
:102E6000BA463B4620462946FDF776FA80460F468D
:102E70000022534620462946FDF70FFB42463B46BB
:102E8000FDF783FB04460D4627E04B4981421BDDDD
:102E9000DFF828A102260022534620462946FDF7E6
:102EA00002FB00223B46FDF757FA80460F46002200
:102EB000534620462946FDF7F0FA42463B46FDF7C9
:102EC00064FB04460D4608E0032622462B460020FC
:102ED0003B49FDF75AFB04460D4622462B46104659
:102EE0001946FDF7E0FA8B46824602460B46FDF78F
:102EF000DAFA07460246334888460B4606217844EC
:102F0000FFF702FD52465B46FDF7CDFA82462E489A
:102F10008B463A46434605217844FFF7F5FC3A468E
:102F20004346FDF7C0FA02460B46002E504659466E
:102F30000CDAFDF711FA22462B46FDF7B4FA01B080
:102F400022462B46BDE8F04FFDF7AABAFDF704FA7A
:102F500022462B46FDF7A7FA1C4A7A4402EBC60329
:102F6000D3E90023FDF799FA22462B46FDF795FA9F
:102F7000174A7A4402EBC603D3E90023FDF790FA1F
:102F8000009A002AB8BF81F00041BDE8F88F000028
:102F9000000010440000F07F182D4454FB21F93F3D
:102FA000FB21F9BF0000DC3F0000203E0000F33FA2
:102FB0000000F03F0000E63F008003400000F83FC3
:102FC0000000F0BF16420000D44100007241000032
:102FD0003A4100002DE9F04D9446CCF1000423F075
:102FE00000464CEA0404594F46EAD4749A4688468F
:102FF00021F00042BC4206D8454240EA050442EABC
:10300000D474BC4204D9BDE8F04D6246FFF7D4BC8D
:10301000AAF14055A5F17F6555EA0C040BD00224B6
:1030200004EAAA744A4DDFF82CE144EAD87452EA63
:10303000000B04D00CE0BDE8F04DFFF7BBBE002C48
:1030400014BF012CBDE8F08D022C30D0032C32D0FF
:1030500056EA0C0B0AD0BE4220D1BA4209D126F062
:10306000804622F080423346114617E000291ADBE1
:1030700025E0DFF8E4B0FB44002C04BFDBE90001ED
:10308000BDE8F08D012C02BFDBE9000181F00041B9
:10309000BDE8F08D022C0AD0032C0CD0BA4212D11C
:1030A000B8F1000F0BDA2A482C49BDE8F08D28460C
:1030B0002B49BDE8F08D28467146BDE8F08D2448C7
:1030C0002849BDE8F08D921B12153C2AC4BF204F41
:1030D000244E10DCBAF1000FBEBF12F13C0F0027E6
:1030E0003E4608DB6246FDF750FA21F00041FFF74B
:1030F00061FE07460E4694B1012C08BF86F00046DB
:103100000DD0194A194B022C3846314615D0FDF71F
:10311000C4F92A46BDE8F04D114BFDF7BEB90022B7
:10312000134638463146FDF71BFC04BF0220FFF76B
:1031300063FC38463146BDE8F08DFDF7AEF92A460E
:10314000BDE8F04D064BFDF7ABB900000000F07F85
:10315000182D4454FB2109C0CE400000FB21F9BFCB
:10316000FB210940FB21F93F075C143326A6A13C53
:103170002DE9F0410446E07800F0C006E07800F068
:103180003F05607800F0010098B1EF102846E9177C
:1031900005EB5171C910A5EBC101491C01F0FF08F5
:1031A0000B48006820B10A484146026838469047FB
:1031B00000BF607800F0080030B10548406818B1E1
:1031C000B011034A516888470020BDE8F081000033
:1031D000E00D002010B56FF00400FEF749FC0A482E
:1031E00000680A49B0FBF1F0094908700846007808
:1031F00000EB4001C1EBC0104FF6FF7101EAC000C7
:103200000449088010BD00002002002000127A004E
:1032100014000020160000200146114A12884A437B
:103220004FF0E0235A6100229A611A46126942F077
:1032300001021A6100BF4FF0E022106900F00102A4
:103240001AB100F48032002AF5D04FF0E022126962
:1032500022F001024FF0E0231A6100229A617047C8
:10326000160000200146114A12784A434FF0E0232D
:103270005A6100229A611A46126942F001021A61EB
:1032800000BF4FF0E022106900F001021AB100F413
:103290008032002AF5D04FF0E022126922F00102BC
:1032A0004FF0E0231A6100229A6170471400002059
:1032B00010B58CB00446194951F824000121FEF7DD
:1032C00099F904EBC40000EB0410154901EBC000B0
:1032D0000290144850F82400001D01900020039033
:1032E000C8200490002008908020069000200790BD
:1032F000059009904FF400500A9000200B900A4965
:1033000051F8240001A9FDF74DFD074951F82400AB
:103310000121FDF791FC0CB010BD0000B4000020AD
:10332000B802002020000020DC00002010B58CB086
:103330000446154951F824000121FEF75BF91348B2
:1033400050F824000290124850F82400001D01900B
:103350001020039000200490089080200690002008
:103360000790059009900A900B900A4951F82400A3
:1033700001A9FDF717FD074951F824000121FDF7C8
:103380005BFC0CB010BD0000B4000020B4060020AF
:1033900020000020C800002000B58BB001210846A5
:1033A000FEF728F91148FDF753FC11480090114829
:1033B000019000200290012003900002069000205E
:1033C00004904FF4806007908020059020200890A2
:1033D000002009900A9069460448FDF7E3FC0121AA
:1033E0000248FDF729FC0BB000BD000008000240B8
:1033F0004C2401403402002038B5044664B120203A
:103400008DF8000028208DF8010030208DF8020092
:1034100038208DF8030004E0A32204216846FCF75D
:10342000B4FE6A46042140F69E2002F083F901F0C2
:1034300073FD38BD3EB5044602208DF80000CA2059
:103440008DF80100E3208DF8020009208DF80300BB
:103450006A460421682002F06DF9A3208DF800006F
:1034600004F0400048B1C0208DF80100C8208DF85C
:103470000200C2208DF8030006E0A3208DF80100B1
:103480008DF802008DF8030004F4C07048B1C42028
:103490008DF80400CC208DF80500C6208DF80600BC
:1034A00006E0A3208DF804008DF805008DF80600D5
:1034B000A3208DF807008DF808008DF809006A46F2
:1034C0000A2140F6A72002F035F904F0030018B1F4
:1034D00020208DF8000002E0D8208DF800006A4618
:1034E000012140F6B62002F025F904F0200018B1C1
:1034F000012000F0ADF802E0002000F0A9F804F48B
:10350000C07008B304F4807060B1B2208DF8000080
:103510008B208DF80100B6208DF802009B208DF8DD
:1035200003000BE0B0208DF8000080208DF8010032
:10353000B4208DF8020090208DF803006A46042123
:1035400040F6A22002F0F6F804F0010020B3F820C3
:103550008DF800006A4601214FF40B6002F0EAF892
:10356000FA21072000F02CFC072000F0F3FB0120DB
:1035700000F013FC642000F0F3FC4FF4FA7000F04C
:1035800002FDC821304800F0A3FB282000F0BCFB5E
:103590000A2000F0CCFB08E0D8208DF800006A4635
:1035A00001214FF40B6002F0C5F804F0020018B1DD
:1035B000D9208DF8000002E0D8208DF800006A467E
:1035C000012140F23D7002F0B5F804F0040018B19A
:1035D000012000F069F802E0002000F065F804F036
:1035E000100018B10120FFF707FF02E00020FFF7ED
:1035F00003FF44F008001549488101F08DFC0020CC
:103600001249887304F0400018B10846807B801D81
:10361000887304F4C07020B10C48807B801D0B4976
:10362000887304F0140020B10848807B10300749EB
:10363000887304F0030020B10448807B001D034917
:10364000887300203EBD000009E3CA02E00D00209F
:103650003EB504466CB10EA1D1E900208968CDE9E0
:10366000002002916A4609214FF4976002F062F847
:103670003EBD0AA2D2E900109268CDE90102009194
:103680006A4609214FF4976002F054F8F0E7000011
:10369000B8AAB38DB4980D355D000000B8AAAAAAE7
:1036A000B088C3C5C700000038B5044664B1C02067
:1036B0008DF80000C2208DF80100C4208DF80200B2
:1036C000C6208DF8030004E08B2204216846FCF735
:1036D0005CFD6A46042140F6982002F02BF801F0C8
:1036E0001BFC38BD10B5C8234FF48062024940F678
:1036F000F63001F0A5FA10BD686400082DE9F04F1E
:103700008DB00746884615469946DDE9166B0024BC
:10371000002030806B49887B5A4605A901F05CFB8C
:1037200018B1601E0DB0BDE8F08F6648807A00F0D9
:103730001400002867D09DF8140000069DF81510AD
:1037400040EA01409DF8161040EA01209DF817104C
:10375000084328609DF8180000069DF8191040EAFB
:1037600001409DF81A1040EA01209DF81B10084303
:1037700068609DF81C0000069DF81D1040EA01409D
:103780009DF81E1040EA01209DF81F100843A86014
:103790009DF8200000069DF8211040EA01409DF8A8
:1037A000221040EA01209DF823100843E86004F14C
:1037B0001000C4B2286800140190686800140290D8
:1037C000A86800140390E86800140490019840432E
:1037D000029901FB0100039901FB0100049901FB1F
:1037E000010ABAF1706F02DBBAF1885F05DD01F002
:1037F00093FB00203080401E94E7B6F9000040F4AF
:103800008070308000BF2F48807A00F0400020B3E5
:1038100005A9601C085C095D40EA012000B2A8F817
:10382000000005A9E01C095C05AAA01C105C41EA87
:10383000002000B2A8F8020005A9601D095C201D47
:10384000105C41EA002000B2A8F80400A01DC4B238
:10385000B6F9000040F0080030801A48408900F4B2
:10386000C07008B305A9601C085C095D40EA01202E
:1038700000B2388005A9E01C095C05AAA01C105CF8
:1038800041EA002000B2788005A9601D095C201D76
:10389000105C41EA002000B2B880A01DC4B2B6F9A5
:1038A000000040F0700030800648807A00F003008D
:1038B00018B105A90819FFF75BFC484601F07AFF2B
:1038C00000202FE7E00D002070B588B0064601A863
:1038D00001F01EF8BDF804000021C90341EA50457B
:1038E000C4034448007A00F0030056F82000059015
:1038F0004048007A00F0040010B10598404205905D
:103900003C48007AC0F3C10056F8200006903948C0
:10391000007A00F0200010B1069840420690354829
:10392000007AC0F3811056F82000079031480089D2
:1039300000F4807010B10798404207900598C117B5
:10394000A0FB042301FB043100FB0510810041EAC8
:10395000927005900698C117A0FB042301FB043167
:1039600000FB0510810041EA927006900798C1178C
:10397000A0FB042301FB043100FB0510810041EA98
:10398000927007900598000E8DF808000598000CBD
:103990008DF809000598000A8DF80A000598C0B254
:1039A0008DF80B000698000E8DF80C000698000CA0
:1039B0008DF80D000698000A8DF80E000698C0B22A
:1039C0008DF80F000798000E8DF810000798000C76
:1039D0008DF811000798000A8DF812000798C0B200
:1039E0008DF8130002AA0C214FF4257001F0A2FEFD
:1039F00008B070BDE00D002030B585B0044616A2B9
:103A000007CA02AB07C3C82C03DD4FF0FF3005B077
:103A100030BDC82090FBF4F0401E85B2280A8DF816
:103A20000000E8B28DF801006A46022140F216203B
:103A300001F080FE10B14FF0FF30E8E702AA0C2140
:103A400040F6C12001F076FE10B14FF0FF30DEE706
:103A5000044884810020DAE7FEF2ABC4AAF1DFDF7C
:103A6000BBAFDFDFE00D00201FB504464848007AF9
:103A700000F0030054F8200001904548007A00F05F
:103A8000040010B10198404201904148007AC0F30F
:103A9000C10054F8200002903D48007A00F0200058
:103AA00010B10298404202903948007AC0F3811068
:103AB00054F8200003903648008900F4807010B15B
:103AC0000398404203903349019880FB0101800F25
:103AD00040EA810001902F49029880FB011082008A
:103AE00042EA917002902B49039880FB01108200FA
:103AF00042EA917003900198000E8DF80000019841
:103B0000000C8DF801000198000A8DF80200019860
:103B1000C0B28DF803006A4604214FF4747001F0BE
:103B200009FE18B14FF0FF3004B010BD0298000E2E
:103B30008DF800000298000C8DF801000298000A30
:103B40008DF802000298C0B28DF803006A46042185
:103B50004FF4757001F0EEFD10B14FF0FF30E3E768
:103B60000398000E8DF800000398000C8DF80100FA
:103B70000398000A8DF802000398C0B28DF8030084
:103B80006A4604214FF4767001F0D4FDCCE70000C2
:103B9000E00D002009E3CA0210B586B0044647A034
:103BA0000068039046A00068029046A0006801905B
:103BB00045A00068009004F0030003A9085C8DF89C
:103BC000140003A8C4F3C101405C8DF8150003A8DC
:103BD000C4F38111405C8DF8160004F0030002A9C3
:103BE000085C8DF8100002A8C4F3C101405C8DF898
:103BF000110002A8C4F38111405C8DF8120005AADF
:103C0000032140F2264001F095FD18B14FF0FF303E
:103C100006B010BD04AA032140F22A4001F08AFD3B
:103C200010B14FF0FF30F3E7019805900098049031
:103C300004F0040058B19DF8140040F001008DF824
:103C400014009DF8100040F001008DF8100004F001
:103C5000200058B19DF8150040F001008DF81500C6
:103C60009DF8110040F001008DF8110004F48070FF
:103C700058B19DF8160040F001008DF816009DF82F
:103C8000120040F001008DF8120005AA03214FF444
:103C9000886001F04FFD10B14FF0FF30B8E704AA83
:103CA000032140F2314001F045FD10B14FF0FF30EB
:103CB000AEE7064804810020AAE700004CCD6C0066
:103CC0000CC92C003656760026466600E00D002012
:103CD000F8B505460E464FF47A7095FBF0F000FB00
:103CE00006F4200E8DF80000200C8DF80100200A4B
:103CF0008DF80200E0B28DF803006A4604214FF40B
:103D0000AE7001F017FDF8BD38B50446052094FBF0
:103D1000F0F084B220128DF80000E0B28DF80100BE
:103D20006A4602214FF4AD7001F004FD38BD38B58C
:103D30000446052094FBF0F084B220128DF80000B8
:103D4000E0B28DF801006A4602214FF4AC7001F038
:103D5000F1FC38BD38B504460020009004F00100A5
:103D600020B19DF8000040F03000009004F0020007
:103D700020B19DF8000040F00C00009004F0040019
:103D800020B19DF8000040F0030000906A46012138
:103D90004FF4A47001F0CEFC38BD38B50446012CB8
:103DA00001DA012402E0042C00DD0424601EC0B20C
:103DB00000906A46012140F24F1001F0BBFC38BD73
:103DC0002DE9FC4706460F4606F0070010B1B7F58F
:103DD000C86F03DD4FF0FF30BDE8FC873846FCF7C5
:103DE0004CFC81465949FCF779FA8046684600F058
:103DF00069FD9DF80000022806D0042816D0082886
:103E000026D0102848D135E04FF08D414046FCF7D0
:103E100033FA8146FCF74FFC84B24D494046FCF72B
:103E20002BFA8146FCF747FC85B238E04FF08C4115
:103E30004046FCF721FA8146FCF73DFC84B2454937
:103E40004046FCF719FA8146FCF735FC85B226E0BE
:103E50004FF08B414046FCF70FFA8146FCF72BFCF4
:103E600084B23D494046FCF707FA8146FCF723FC43
:103E700085B214E04FF08A414046FCF7FDF98146D7
:103E8000FCF719FC84B235494046FCF7F5F9814648
:103E9000FCF711FC85B202E04FF0FF309CE700BF59
:103EA00020128DF80400E0B28DF8050028128DF87C
:103EB0000600E8B28DF8070006F00100A0B101AAE3
:103EC00002214FF4EA7001F035FC10B14FF0FF30E1
:103ED00082E70DF1060202214FF4927001F02AFCF4
:103EE00010B14FF0FF3077E706F00200A0B101AA51
:103EF00002214FF4EC7001F01DFC10B14FF0FF30C7
:103F00006AE70DF1060202214FF4947001F012FCF1
:103F100010B14FF0FF305FE706F00400A0B101AA36
:103F200002214FF4EE7001F005FC10B14FF0FF30AC
:103F300052E70DF1060202214FF4967001F0FAFBF0
:103F400010B14FF0FF3047E7002045E7000048433D
:103F5000000040460000C045000040450000C0444D
:103F600038B50446052094FBF0F085B228128DF890
:103F70000000E8B28DF801006A4602214FF4EF70AC
:103F800001F0D8FB38BD38B50446052094FBF0F0AD
:103F900085B228128DF80000E8B28DF801006A465B
:103FA00002214FF4ED7001F0C5FB38BD7CB505462C
:103FB00028494968087801AB04220D2100F05AFB1A
:103FC00008B107207CBD9DF80700C0F301109DF8E3
:103FD000041001F0E00140EAE1008DF800009DF8D6
:103FE0000700C0F381009DF8051001F0E00140EAF0
:103FF000E1008DF801009DF8070000F003009DF836
:10400000061001F0E00140EAE1008DF80200002412
:104010001CE01DF8040018B9002045F8240013E046
:104020000D4845F8240006E055F824000B49FCF73C
:1040300023F945F824001DF80400401EC0B20DF815
:1040400004000028F0D100BF601CC4B2032CE0DBE8
:104050000020B7E7380200207B14AE3E1D5A843F93
:104060002DE9F04F87B005460C46914601208DF8AA
:10407000100000208DF81100FE4A1268917CFD4A64
:104080005268107804AB022200F02FFB20B14FF0F1
:10409000FF3007B0BDE8F08FC820FFF7BDF8002063
:1040A0008DF81000F34A1268D17BF24A52681078FA
:1040B00004AB012200F019FB10B14FF0FF30E8E72C
:1040C000EC4A12685179EB4A5268107804AB01222D
:1040D00000F00BFB10B14FF0FF30DAE7E54A126851
:1040E000917CE44A5268107804AB012200F0FDFA9A
:1040F00010B14FF0FF30CCE7DE4A1268D17DDD4AC7
:104100005268107804AB012200F0EFFA10B14FF0C2
:10411000FF30BEE7D74A12681179D64A5268107844
:1041200004AB012200F0E1FA10B14FF0FF30B0E72C
:104130000C208DF81000CF4A12681179CD4A5268D0
:10414000107804AB012200F0D0FA10B14FF0FF302C
:104150009FE70F20FFF760F8C648806A407A8DF825
:104160001000C44A12689178C24A5268107804ABB1
:10417000012200F0BAFA10B14FF0FF3089E7BD48D4
:10418000806A007A8DF81000BA4A12685178B94AEC
:104190005268107804AB012200F0A7FA10B14FF07A
:1041A000FF3076E7B9F1000F07D0B248806A807A15
:1041B00040F0E0008DF8100004E0AE48806A807A9C
:1041C0008DF81000AB4A12689179AA4A52681078AB
:1041D00004AB012200F089FA10B14FF0FF3058E72C
:1041E000B9F1000F07D0A348806AC07A40F0E00020
:1041F0008DF8100003E0A048C07A8DF810009D4AA9
:104200001268D1799B4A5268107804AB012200F001
:104210006CFA10B14FF0FF303BE7B9F1000F02D05C
:10422000C820FEF7F9FF40208DF81000914A12686F
:104230001179904A5268107804AB012200F055FAC7
:1042400010B14FF0FF3024E778208DF81000894A34
:1042500012685179874A5268107804AB012200F045
:1042600044FA10B14FF0FF3013E783498889FEF715
:10427000D3FF00208DF810007E4A126851797D4AE4
:104280005268107804AB012200F02FFA10B14FF001
:10429000FF30FEE6774A1268917A764A52681078C3
:1042A00004AB022200F0E6F910B14FF0FF30F0E667
:1042B0009DF811009DF8101040EA012B0C209BFB8B
:1042C000F0F0C6B20020A86068602860A06060605E
:1042D0002060824665E0674A1268D17A654A526872
:1042E000107804AB0C2200F0C5F910B14FF0FF308C
:1042F000CFE69DF811009DF8101040EA012000B2B1
:10430000ADF808009DF813009DF8121040EA012056
:1043100000B2ADF80A009DF815009DF8141040EAAF
:10432000012000B2ADF80C00BDF908102068084467
:104330002060BDF90A10606808446060BDF90C1087
:10434000A0680844A0609DF817009DF8161040EA88
:10435000012000B2ADF800009DF819009DF818107A
:1043600040EA012000B2ADF802009DF81B009DF864
:104370001A1040EA012000B2ADF80400BDF90010A7
:10438000286808442860BDF902106868084468601D
:10439000BDF90410A8680844A8600AF1010000F003
:1043A000FF0AB24597DB3448D0F800C02868C1172F
:1043B000090441EA10410704624600233846FBF72E
:1043C000B3FE32460023CDE90201FBF7ADFE2860C3
:1043D0002948D0F800C06868C117090441EA1041B3
:1043E0000704624600233846FBF79EFE3246002350
:1043F000CDE90201FBF798FE68601F48D0F800C0C5
:10440000A868C117090441EA104107046246002365
:104410003846FBF789FE32460023CDE90201FBF75F
:1044200083FEA8601448D0F804C02068C1170904AE
:1044300041EA10410704624600233846FBF774FE48
:1044400032460023CDE90201FBF76EFE20600A48E8
:10445000D0F804C06068C117090441EA104107049C
:10446000624600233846FBF75FFE32460023CDE963
:10447000020103E03802002040640008FBF754FE0C
:1044800060601148D0F804C0A068C117090441EA6F
:1044900010410704624600233846FBF745FE3246CA
:1044A0000023CDE90201FBF73FFEA060A0680028D1
:1044B00004DDA068A0F58030A06003E0A06800F5EE
:1044C0008030A0600020E4E54064000838B5044670
:1044D000164951F824000121FCF798FD144951F8C0
:1044E00024000121FDF7A6F8124830F8240080B21C
:1044F000ADF8000018208DF8030003208DF80200AD
:104500000D4951F824006946FCF7F4FC0B4830F8DB
:10451000240080B2ADF8000004208DF803000649A5
:1045200051F824006946FCF7E5FC38BDA4020020E0
:1045300070000020840000205C0000209800002013
:1045400008B501210420FDF775F80120ADF8000041
:1045500000208DF8030069460148FCF7CBFC08BD3C
:10456000000801402DE9FC5F06460F4600253D4945
:104570004968087801AB03220D2100F07BF810B1E7
:104580000720BDE8FC9F9DF8040000F01F008DF897
:1045900004009DF8050000F01F008DF805009DF84F
:1045A000060000F01F008DF80600002456E056F8C3
:1045B000240057F82410A0EB010BBBF1000F01DB26
:1045C000594601E0CBF100010846FCF74DF84FF0E9
:1045D0008F410090FBF782FE814601A8005D68B321
:1045E00021490868FCF749F8834659461F48FBF7FC
:1045F00075FE804604E01E494046FBF73DFE8046BE
:1046000001A8005D401EC0B201A908550028F2D1E2
:1046100041464846FBF762FE83464FF07E51FBF76A
:1046200025FE82462AF0004B0F4881695846FCF768
:104630008FF812D20120A04005430EE00A4801691C
:104640004846FCF77BF805D3074841694846FCF724
:104650007FF802D20120A0400543641C032CA6DB96
:1046600028468EE7380200204064000800B04C4520
:1046700054E3853F2DE9F04106460F4614461D469A
:10468000FCF7FEFD10B90120BDE8F0817106080EAF
:10469000FCF7C4FDFCF74CFE18B9FCF725FE012021
:1046A000F2E73846FCF7BAFDFCF742FEFCF7E8FDFE
:1046B000012101EB4601C8B2FCF7B0FDFCF738FE62
:1046C0000DE0012C04D10020FCF770FD287003E000
:1046D0000120FCF76BFD28706D1C601EC4B2002C1D
:1046E000EFD1FCF701FE0020CEE72DE9F0410546B1
:1046F0000E4617469846FCF7C3FD10B90120BDE8E9
:10470000F0816906080EFCF789FDFCF711FE18B967
:10471000FCF7EAFD0120F2E73046FCF77FFDFCF7ED
:1047200007FE00240BE018F80400FCF777FDFCF707
:10473000FFFD18B9FCF7D8FD0020E0E7641CBC427F
:10474000F1DBFCF7D1FD0020D9E770B5054628461E
:1047500000F00FF80446E81C00F00BF844EAC00033
:1047600084B2A81D00F005F844EA801084B2204607
:1047700070BD014691F90020002A01DD00201EE0F5
:1047800091F90020002A01DA042018E091F90120B3
:10479000002A01DD012012E091F90120002A01DA4E
:1047A00005200CE091F90220002A01DD022006E03C
:1047B00091F90220002A01DA062000E00720704764
:1047C0004FF4A060FCF7FEFE01210846FCF732FF23
:1047D00001210E48FCF71AFCFEF7FCFC00F02CF857
:1047E000FEF790F94FF4E131022001F025FD4FF47E
:1047F000E131012001F03EFD4FF4E131032001F0F1
:104800003BFB322000F004F800BFFEE7000230005E
:1048100010B50446204601F0A9F8012211460548CA
:10482000FDF7B1FE00F0C7FF01210248FDF79FFE32
:1048300010BD00000008004010B5FCF77BFCFCF741
:1048400038FEC820FEF7E8FCFCF7CCFAC820FEF7DB
:10485000E3FC10BD70B50446002624F0010418489E
:1048600090F8240008B1002070BD1548807A10B976
:104870004FF0FF30F8E71248057C807A204010495D
:1048800008740846007CA04202D04FF0FF3600E0DA
:10489000002614B90A48007D18B1012000F0F8FF85
:1048A00002E0002000F0F4FF3CB100F035FB20B145
:1048B000034805744FF0FF30D6E73046D4E70000D8
:1048C0003802002001461148407A30B1012807D053
:1048D000022808D003280CD108E0022008700BE061
:1048E0000420087008E00820087005E01020087017
:1048F00002E04FF0FF30704700BF0448C07C18B1A1
:1049000008784006000E08700020F4E73802002006
:1049100001461348407A30B1012808D002280AD055
:10492000032810D10BE04FF4804008800EE041F6E0
:104930009C7008800AE04FF48050088006E04FF435
:104940000060088002E04FF0FF30704700BF04486D
:10495000C07C10B10888401008800020F5E70000F6
:104960003802002001460248007C08700020704791
:104970003802002001460F48007A30B1012807D0E4
:10498000022809D003280FD10AE0FA2008800EE09F
:104990004FF4FA7008800AE04FF47A70088006E05D
:1049A0004FF4FA60088002E00020088000BF00BFDA
:1049B000002070473802002001460E48007A30B1CE
:1049C000012807D0022808D003280CD108E00A48A3
:1049D00008600BE00948086008E00948086005E045
:1049E0000848086002E04FF0FF30704700BF002029
:1049F000FBE7000038020020000003430000834270
:104A0000333303423333834101461248C07A0828C6
:104A100017D2DFE800F01704070A0D101318BC20A6
:104A2000088013E06220088010E02A2008800DE052
:104A3000142008800AE00A20088007E0052008808A
:104A400004E000BF00BF0020088000BF00BF0020BE
:104A500070470000380200200146064890F8240004
:104A600010B14FF0FF3070470248C0890880002025
:104A7000F9E700003802002010B5FCF755FE0648A3
:104A8000006806490860064800680649086006484C
:104A900000680649086010BD74020020F000002084
:104AA00078020020F40000207C020020F8000020A2
:104AB0001CB580208DF80000604A1268917C5F4A26
:104AC000526810786B460122FFF70FFE10B14FF0CD
:104AD000FF301CBD6420FEF79FFB00208DF8000016
:104AE000564A1268917C554A526810786B460122EA
:104AF000FFF7FBFD10B14FF0FF30EAE74F4A1268B5
:104B0000917D4E4A526810786B460622FFF7B2FD3F
:104B100010B14FF0FF30DCE79DF80500C007400FF3
:104B20009DF8031001F0010140EA41009DF80110D9
:104B300001F0010140EA010474B1012C03D101210B
:104B40003E48C17427E0022C03D100213B48C174C8
:104B500021E04FF0FF30BCE7384A1268D178374A7D
:104B6000526810786B460122FFF784FD10B14FF0B8
:104B7000FF30AEE79DF8000000F00F0414B94FF0CD
:104B8000FF30A6E7042C03D101212C48C17402E0B8
:104B900000212A48C174FF2128488172FF2027493B
:104BA0000872FF2125484172C1724FF6FF71C18121
:104BB000FF21017481740121017380F8221000210A
:104BC00080F82310417501751630016041608160E5
:104BD000163880F8241080F82510C1844FF4FA604C
:104BE00000F036FC10B14FF0FF3072E7022000F009
:104BF000FFFA10B14FF0FF306BE72A2000F0A2FC63
:104C000010B14FF0FF3064E7322000F0DDFC10B14E
:104C10004FF0FF305DE70020FFF71CFE10B14FF0B2
:104C2000FF3056E7002000F025FB10B14FF0FF30B9
:104C30004FE7002000F016FD00204AE73802002070
:104C40002DE9F04385B005460E4690469946294821
:104C500090F8250020B14FF0FF3005B0BDE8F0839B
:104C600016B94FF0FF30F8E7002423E0281B102886
:104C700001DD102000E0281B87B23219394620469A
:104C800000F058FD10B14FF0FF30E6E701AA3946B9
:104C9000204600F001F910B14FF0FF30DDE7301988
:104CA0003A4601A9FBF783FA10B16FF00100D4E78F
:104CB000E01984B2AC42D9DB4FEA28208DF800001D
:104CC00008F0FF008DF801000A4A1268917E094A37
:104CD000526810786B460222FFF707FD10B14FF0C3
:104CE000FF30BAE70121034880F82510A0F826908C
:104CF0000020B2E73802002038B50446282C02DD37
:104D00004FF0FF3038BDDCB9002000F0E5FB00209B
:104D10008DF8000007208DF801002E4A1268917C62
:104D20002C4A526810786B460222FFF7DEFC10B165
:104D30004FF0FF30E6E70021264801750020E1E74B
:104D4000012000F0C9FB20208DF80000012C06D1C5
:104D500000208DF80100052000F0F4FB17E0052C81
:104D600006DC01208DF80100052000F0EBFB0EE0D1
:104D7000142C06DC02208DF801000A2000F0E2FB72
:104D800005E003208DF80100142000F0DBFB9DF806
:104D90000100072101EB8010C0B28DF801000D4A1F
:104DA0001268917C0B4A526810786B460222FFF71A
:104DB0009CFC10B14FF0FF30A4E708210548817238
:104DC00000210173012101750020FFF743FD002040
:104DD00098E7000038020020F8B504460F46164652
:104DE0002C4890F8240010B94FF0FF30F8BD294846
:104DF000807A10B94FF0FF30F8E7264A1268917AAE
:104E0000244A526810786B460222FFF733FC10B137
:104E10004FF0FF30EAE79DF801009DF8001040EAEE
:104E20000125A54203DA00203070401EDEE7194854
:104E300040684088B5EB600F17DD164A1268517C58
:104E4000144A526810786B460122FFF713FC10B128
:104E50004FF0FF30CAE79DF8000000F0100020B1CD
:104E600000F05AF86FF00100C0E7E2B2094B1B688E
:104E7000D97A084B5B6818783B46FFF7FBFB10B10B
:104E80004FF0FF30B2E795FBF4F0401E3070002089
:104E9000ACE7000038020020F8B504460D4616467F
:104EA00016B94FF0FF30F8BD1A48807A10B94FF0AC
:104EB000FF30F8E720128DF80000E0B28DF8010015
:104EC0009DF801002844134949684989884202DD58
:104ED0004FF0FF30E7E70F4A1268117E0D4A526823
:104EE00010786B460222FFF700FC10B14FF0FF3044
:104EF000D9E7EAB2074B1B68597D064B5B68187807
:104F00003346FFF7B7FB10B14FF0FF30CBE700207F
:104F1000C9E700003802002008B56D48807A10B952
:104F20004FF0FF3008BD00200090694A1268D17B25
:104F3000674A526810786B460122FFF7D6FB10B122
:104F40004FF0FF30EEE7624A12685179604A5268CA
:104F500010786B460122FFF7C8FB10B14FF0FF300D
:104F6000E0E75B4A12681179594A526810786B463B
:104F70000122FFF7BAFB10B14FF0FF30D2E75448DF
:104F800090F82400002850D00C200090504A12685D
:104F900011794F4A526810786B460122FFF7A5FB42
:104FA00010B14FF0FF30BDE7C02000904848807A34
:104FB00000F0010020B19DF8000040F020000090BA
:104FC000434A12681179424A526810786B460122AE
:104FD000FFF78BFB10B14FF0FF30A3E73C48407C5C
:104FE00010B10220009001E000200090384A1268C1
:104FF000D17B374A526810786B460122FFF775FB68
:1050000010B14FF0FF308DE700200090304A126859
:1050100051792F4A526810786B460122FFF765FBE1
:10502000002852D04FF0FF307CE704200090284A3F
:1050300012681179264A526810786B460122FFF7F0
:1050400054FB10B14FF0FF306CE72148807C20B951
:105050001F48807A00F0010010B94020009001E064
:10506000602000901A4A12681179194A5268107823
:105070006B460122FFF739FB10B14FF0FF3051E7CB
:105080001348407C10B10120009001E00020009006
:105090000F4A1268D17B0E4A526810786B46012283
:1050A000FFF723FB10B14FF0FF303BE7084A1268CF
:1050B0005179074A52681078054B10330122FFF7E7
:1050C00014FB10B14FF0FF302CE700202AE700005E
:1050D000380200202DE9F04F8DB083460F460220A4
:1050E0000C90424890F8240020B1002000F068F9AC
:1050F000012600E0002603A8FFF73CFC05A8FFF707
:10510000E1FB01A8FFF780FC02A8FFF7A5FC3748E8
:1051100090F80AA004A8FFF725FC002407E000226D
:1051200039465846FEF79CFF00B902E0641C022C89
:10513000F5DB00BF022C01D1002528E0002407E0A8
:10514000012206A909A8FEF78BFF00B902E0641C42
:10515000022CF5DB00BF022C01D1002517E006A9C7
:105160003846FDF74FFC00F0FF0809A95846FFF745
:10517000F9F900F0FF090025B9F1000F01D145F060
:105180000105B8F1000F01D145F0020500BFFF2075
:1051900016490872FF2115484172C1724FF6FF711E
:1051A000C181FF218172017401210173BDF80C00DE
:1051B00000F04EF99DF8140000F01AF8BDF8040054
:1051C00000F0C0F9BDF8080000F0FEF9504600F00C
:1051D00049FA9DF81000FFF73DFB16B1012000F0E1
:1051E000EFF828460DB0BDE8F08F0000380200202F
:1051F00038B504461E48807A10B94FF0FF3038BDEC
:10520000022C06D0042C07D0082C08D0102C0CD16E
:1052100008E0002000900BE00820009008E010203B
:10522000009005E01820009002E04FF0FF30E6E724
:1052300000BF0F48407A9DF80010B0EBE10F01D19C
:105240000020DCE70A4A1268D179094A52681078CE
:105250006B460122FFF749FA10B14FF0FF30CEE75D
:105260009DF80000C110024841720020C7E700000D
:105270003802002038B504465048807CA04201D155
:10528000002038BD002C46D04C4A126811794B4A98
:10529000526810786B460122FFF7ECF910B14FF01D
:1052A000FF30EEE79DF8000020F020000090434A18
:1052B00012681179414A526810786B460122FFF753
:1052C00014FA10B14FF0FF30DBE70320FDF7A4FF25
:1052D00002200090394890F8220020B19DF800008B
:1052E00040F080000090354890F8230020B19DF8F0
:1052F000000040F030000090304A1268117D2F4AC3
:10530000526810786B460122FFF7EFF9002851D060
:105310004FF0FF30B5E7294A12681179274A5268E1
:1053200010786B460122FFF7A5F910B14FF0FF305E
:10533000A7E72248807A00F0010028B19DF800001C
:1053400040F02000009004E09DF8000020F02000D4
:1053500000901A4A12681179184A526810786B4600
:105360000122FFF7C2F910B14FF0FF3089E70320A7
:10537000FDF752FF114890F8220010B180200090F4
:1053800001E0002000900D4890F8230020B19DF826
:10539000000040F030000090084A1268117D074A72
:1053A000526810786B460122FFF79FF910B14FF059
:1053B000FF3066E701488474002062E7380200206D
:1053C00038B50446214890F82400A04201D10020BD
:1053D00038BD24B31D4890F8250010B94FF0FF30B8
:1053E000F6E7002000F054FA0020FFF743FF1749CA
:1053F000C88C00F0E9F8002000901449496808784A
:105400006B4601222321FFF770F901210F4880F834
:105410002410012000F03CFAFFF77EFD13E000208D
:1054200000F036FA0948007C00900849496808787D
:105430006B4601222321FFF758F90021034880F829
:105440002410FFF769FD0020C2E7000038020020A9
:1054500038B504461F48807A10B94FF0FF3038BD88
:10546000FA2C09D0B4F5FA7F09D0B4F57A7F09D0C7
:10547000B4F5FA6F0CD108E0002000900BE0082092
:10548000009008E01020009005E01820009002E055
:105490004FF0FF30E3E700BF0E48007A9DF80010A0
:1054A000B0EBE10F01D10020D9E70A4A12689179E7
:1054B000084A526810786B460122FFF716F910B1BE
:1054C0004FF0FF30CBE79DF80000C0100149087293
:1054D0000020C4E73802002038B50446184890F888
:1054E0002300A04201D1002038BD14B1302000902B
:1054F00001E0002000901248807C20B19DF800005F
:1055000040F0020000900E4890F8220020B19DF873
:10551000000040F080000090094A1268117D084A9E
:10552000526810786B460122FFF7DFF810B14FF098
:10553000FF30D9E7024880F823400020D4E700007C
:105540003802002038B504461E48807A10B94FF062
:10555000FF3038BDBC2C02DB0120009015E0622C2E
:1055600002DB0220009010E02A2C02DB03200090D6
:105570000BE0142C02DB0420009006E00A2C02DB76
:105580000520009001E0062000900E48C07A9DF8AA
:105590000010884201D10020DBE70A4A12689178A6
:1055A000084A526810786B460122FFF79EF810B146
:1055B0004FF0FF30CDE79DF800100248C172002087
:1055C000C7E700003802002038B504462448807A36
:1055D00010B94FF0FF3038BD214890F8240010B1C9
:1055E0004FF0FF30F7E71E48007D50B134B1282C52
:1055F00004DCE0B2FFF780FB0020ECE70020FFF7BF
:105600007BFB042C01DA042404E0B4F57A7F01DD8D
:105610004FF47A744FF47A7090FBF4F0401EC0B2ED
:1056200000900F4A126851780D4A526810786B4604
:105630000122FFF75AF810B14FF0FF30CBE79DF889
:105640000000401C4FF47A7191FBF0F081B20448E5
:10565000C1810146C9894810FFF774FF0020BAE7ED
:105660003802002038B5044604F0700010B1012063
:10567000009005E014B10020009001E0402000906F
:105680002B4A1268917C2A4A526810786B46012294
:10569000FFF72BF820B1002125488172481E38BD44
:1056A0009DF8000020F04001214801730020009087
:1056B00004F0400020B99DF8000040F00400009084
:1056C00004F0200020B99DF8000040F00200009096
:1056D00004F0100020B99DF8000040F00100009097
:1056E00004F0080020B99DF8000040F03800009058
:1056F0000F4A1268D17C0E4A526810786B4601221C
:10570000FEF7F3FF20B1002109488172481EC6E769
:1057100024B1082C02D00020FFF7DEFE044884727A
:10572000002101753220FDF777FD0020B7E700006A
:1057300038020020F8B504460D46164616B94FF05B
:10574000FF30F8BD1A48807A10B94FF0FF30F8E703
:1057500020128DF80000E0B28DF801009DF80100E4
:105760002844134949684989884202DD4FF0FF30D7
:10577000E7E70F4A1268117E0D4A526810786B46AF
:105780000222FEF7B2FF10B14FF0FF30D9E7EAB2C4
:10579000074B1B68597D064B5B6818783346FEF74C
:1057A000A4FF10B14FF0FF30CBE70020C9E70000A5
:1057B00038020020704708B51E208DF80000012037
:1057C0008DF8030002208DF801008DF80200684674
:1057D000FBF7C0FE08BD000038B504460748005D71
:1057E0008DF8000001208DF801008DF802008DF881
:1057F00003006846FBF7AEFE38BD0000AC00002099
:1058000070B588B002A905A8FFF764FC0446032C14
:105810003CD101A8FFF7D0F80598FAF725FF064616
:105820000199FAF729FD0546FAF72CFF059006982D
:10583000FAF71AFF06460199FAF71EFD0546FAF730
:1058400021FF06900798FAF70FFF06460199FAF72D
:1058500013FD0546FAF716FF079005A8FEF704F9B1
:105860006846FFF755F8BDF80010029848430290CB
:10587000BDF80010039848430390BDF80010049849
:105880004843049002A8FEF71FF800BF08B070BD9F
:1058900038B50446214890F82400C0B114B1022064
:1058A000009001E0002000901C4A1268D17B1B4A46
:1058B000526810786B460122FEF717FF10B14FF0C7
:1058C000FF3038BD9DF800101448417423E01348A0
:1058D000807A10B94FF0FF30F3E724B10F48407CD5
:1058E00008B10020EDE714B10120009001E0002094
:1058F00000900A4A1268D17B084A526810786B46B9
:105900000122FEF7F2FE10B14FF0FF30D9E79DF80B
:105910000010024841740020D3E700003802002044
:105920002DE9F04106460F46FBF754F8041E0D46DC
:1059300018BF0120284320F00040C0F17F6000F133
:10594000E040C00F0ED0301C18BF0120384320F0BB
:105950000040C0F17F6000F1E040C00F04BF0120B3
:10596000FDF74AF820462946BDE8F0813EB50446D9
:1059700001210420FBF74EFE40F2CF20ADF80000DD
:10598000642104FB01F0401E80B2ADF80400002049
:10599000ADF80200ADF8060069460548FCF7FCFDCD
:1059A000642104FB01F0401E024908803EBD000056
:1059B00000080040180000202DE9F04F044609AD12
:1059C00095E8E010DDE90E9ADDF83480601EDFF81E
:1059D00008B35BF820007E287ED131B1601EDFF86D
:1059E000FCB20BEBC0104078087032B1601EDFF8DB
:1059F000ECB20BEBC0108078107033B1601EDFF892
:105A0000DCB20BEBC010C078187035B1601EDFF847
:105A1000CCB20BEBC0104068286036B1601EDFF8D6
:105A2000BCB20BEBC0108068306037B1601EDFF88D
:105A3000ACB20BEBC010C0683860BCF1000F07D0EF
:105A4000601EDFF898B20BEBC0100069CCF80000C4
:105A5000B8F1000F07D0601EDFF880B20BEBC0106A
:105A60004069C8F80000B9F1000F07D0601EDFF8E8
:105A70006CB20BEBC0108069C9F80000BAF1000FDE
:105A800007D0601EDFF854B20BEBC010C069CAF833
:105A90000000109848B1601EDFF840B20BEBC01058
:105AA000D0F820B01098C0F800B0119848B1601E2E
:105AB000DFF828B20BEBC010D0F824B01198C0F872
:105AC00000B0129858B1601EDFF810B20BEBC01096
:105AD000D0F828B0129800E0FBE0C0F800B01398AE
