:020000040800F2
:1000000018110020050100087D150008C91000081E
:1000100079150008610C0008992000080000000014
:10002000000000000000000000000000B1190008FE
:10003000690E00080000000005160008C51A000837
:100040001F0100081F0100081F0100081F01000810
:100050001F0100081F0100086D0E00089D0E00081A
:10006000B50E0008CD0E0008E50E00081F010008BF
:100070001F0100081F0100081F0100081F010008E0
:100080001F0100081F0100081F0100081F010008D0
:100090001F0100081F0100081F010008FD0E0008D5
:1000A0001F0100081F0100081F0100081F010008B0
:1000B0001F0100081F010008291B00081F0100087C
:1000C0001F0100081F0100081F0100081F01000890
:1000D0001F010008D51D0008DF1D0008E91D0008EC
:1000E000850E00081F0100081F010008DFF810D06E
:1000F00000F064FC0048004705430008AFF30080AF
:10010000181100200648804706480047FEE7FEE732
:10011000FEE7FEE7FEE7FEE7FEE7FEE7FEE7FEE7B7
:10012000C91A0008ED0000082DE9F0410024061B63
:10013000254671F1000605DA01240027D0EB0700FF
:1001400067EB0101161E73F1000605DA0027D2EBFA
:100150000702012567EB030300F01AFB86460E46F3
:1001600017469C46AC4204D00025D0EB050E65EB4B
:10017000010624B10020D2EB000760EB030C7046AF
:1001800031463A466346BDE8F081D2B201E000F85C
:10019000012B491EFBD270470022F6E710B513462B
:1001A0000A4604461946FFF7F0FF204610BD30B559
:1001B00004460020034600E05B1C934203D2E05C4F
:1001C000CD5C401BF8D030BDF0B480EA0102D40F02
:1001D0004200B2EB410F02D20246084611464A00E5
:1001E00042D0C30DDDB2C1F3C752AD1A202D35DAAE
:1001F000C1F3160141F4000204B15242C5F12006D8
:1002000002FA06F12A411044B3EBD05F23D0C4B107
:10021000012DA0EBC35009DCF0BC4FF0004202EA14
:10022000C352DBB200F5000000F00DBB400000F14E
:10023000807000EBC350A0F1807040EAD17049009B
:1002400009E0490841EAC071A0EBC35000F5000085
:10025000400800EBC350F0BC00F0ECBA6142012250
:1002600002EB4101001BF6E7F0BC704781F0004152
:10027000AAE780F00040A7E780EA010210B502F08B
:100280000043400022D04A001FD0010E01EB126152
:10029000C0F35600C2F3560240F4000042F40002DC
:1002A000A0FB022000047F39140400D0401C50EA57
:1002B000124001D44000491EC2B20C0604EBD0101B
:1002C000401C4008802A02D003E0002010BD20F02E
:1002D0000100002900DA0020184310BD30B480EA84
:1002E000010202F0004530F0004221F0004013D03E
:1002F00090B1C30DD40DC2F31601C0F31600E41A79
:1003000041F4000140F400027D34914201D3641CA9
:1003100000E04900002C02DA30BC002070474FF4A6
:1003200000000023914201D3891A034340084FEA99
:100330004101F7D151B1914202D14FF0004105E0A6
:1003400002D24FF0010101E06FF0010103EBC45054
:10035000284430BC00F06EBA2DE9FE4F804681EA99
:100360000300C00F0C46009021F0004123F000452F
:10037000B8EB0200A94105D24046214690461C46F2
:100380000B46024623F00040104347D0270DC7F329
:100390000A00C3F30A510290401A019040286BDA18
:1003A000C3F3130040F4801B0098924620B1002351
:1003B000D2EB030A63EB0B0B01985946C0F14002E4
:1003C000504600F016FA06460D4650465946019A28
:1003D00000F01EFA10EB08006141002487EA115278
:1003E00084EAE7731A4340D0009A62B3019A012A63
:1003F0004FEA075215DC001B61EB02014FF000428F
:1004000002EA0752CDE90042001C41F58011324654
:100410002B4600F055FA03B0BDE8F08F4046214668
:10042000F9E7001B61EB0201001C41F58013001885
:100430005B412018A2F5001747EB030140EAD57095
:10044000B6196D4111E06D084FEA360645EAC075F0
:100450004FEA0752001B61EB0201001C41F58011BD
:1004600049084FEA30000019514132462B4603B08B
:10047000BDE8F04F00F015BA0098012240000023BB
:10048000D0EB020263EBE073009821464FEAE07480
:10049000B8EB000061EB0401E9E783F000435BE7A0
:1004A00081F0004158E72DE9FE4F81EA030404F092
:1004B000004421F0004100944FF0000B23F0004372
:1004C00050EA01045ED052EA03045BD0C3F30A543D
:1004D000C1F30A552C44A4F2F3340194A0FB025456
:1004E000C1F3130141F48011C3F3130343F48013E8
:1004F00001FB024400FB034E840A970A44EA81543C
:1005000047EA8357A4FB076802958D0A05FB078518
:100510004FEA932C04FB0C542705029D4FEA065822
:1005200047EA1637B5EB08056EEB070C870E920EFF
:1005300047EA811742EA8312A7FB0201B6EB0B01DF
:1005400064EB00042B0D43EA0C335E1844EB1C50A3
:10055000DA465146E7FB0201C5F313044FEA0B33B9
:1005600043EA14534FEA0432019C43EA0603A4F120
:100570000C040294009CCDE900B400F0A1F903B092
:10058000BDE8F08F00200146F9E72DE9F04D81EA42
:10059000030404F0004B21F0004514464FF0000A1C
:1005A00023F0004150EA050220D054EA01021DD098
:1005B000C5F30A570246C5F31303C1F31300C1F391
:1005C0000A5640F4801543F48013A7EB0608101B6D
:1005D000D64608F2FD3873EB050002D308F1010896
:1005E00001E092185B41B8F1000F03DA00200146E8
:1005F000BDE8F08D00204FF48011064684460EE0E1
:10060000171B73EB050705D3121B63EB05030643AA
:100610004CEA010C49084FEA300092185B4150EA5D
:100620000107EDD152EA030012D082EA040083EA06
:100630000501084305D0101BAB4106D2012200235F
:1006400006E000224FF0004302E06FF00102531079
:100650001AEB06004CEB085110EB0A0041EB0B01C2
:10066000BDE8F04D00F01DB9C10F80EAE07008440C
:10067000CA079623002100F0E6B89623002211460F
:1006800000F0E1B800F0004220F00040C10DC0F3DE
:10069000160040F400007F2901DA002070479629F7
:1006A00003DCC1F19601C84001E096398840002A78
:1006B000F4D04042704720F00040C10DC0F3160056
:1006C00040F400007F2901DA00207047962903DCFE
:1006D000C1F19601C840704796398840704700F0D4
:1006E000004230F000400AD0C10D01F56071C0F346
:1006F000160042EA0151C20840071143704700202A
:100700000146704701F0004330B421F0004150EA47
:10071000010206D00A0DA2F56072C1F31301002A8E
:1007200002DC30BC00207047440F44EAC104C10021
:10073000E01830BC00EBC25000F07CB8002801DBB0
:10074000C0F10040002901DBC1F100418142704746
:10075000002801DBC0F10040002901DBC1F10041AC
:100760008842704730B50B46014600202022012404
:1007700009E021FA02F59D4205D303FA02F5491B6F
:1007800004FA02F52844151EA2F10102F1DC30BD85
:100790002DE9F05F0546002092469B4688460646B6
:1007A000814640241BE0284641464746224600F049
:1007B00017F953465A46C01A914110D311461846AC
:1007C000224600F016F82D1A67EB01084F46224624
:1007D0000120002100F00DF817EB00094E41201E0A
:1007E000A4F10104DFDC484631462A464346BDE811
:1007F000F09F202A04DB203A00FA02F10020704723
:100800009140C2F1200320FA03F31943904070474E
:10081000202A06DBCB17203A41FA02F043EAE073C4
:1008200006E041FA02F3D040C2F1200291400843B1
:10083000194670470029A8BF7047401C490008BFEF
:1008400020F00100704710B4B0FA80FC00FA0CF000
:1008500050EA010404BF10BC704749B1CCF1200438
:1008600021FA04F411FA0CF118BF012121430843C5
:10087000A3EB0C01CB1D4FEA00614FEA102042BFF1
:10088000002010BC704700EBC35010440029A4BFE7
:1008900010BC7047401C490008BF20F0010010BC8C
:1008A000704710B5141E73F1000408DA401C41F1C2
:1008B000000192185B411A4301D120F0010010BDE4
:1008C0002DE9F04D92469B4611B1B1FA81F202E05A
:1008D000B0FA80F220329046FFF78BFF04460F46B5
:1008E00040EA0A0041EA0B0153465A46084313D036
:1008F000114653EA010019D0C8F14002504600F0F9
:100900006FF805460E46504659464246FFF771FFBE
:10091000084305D0012004E020463946BDE8F08DAB
:100920000020054346EAE0762C4337430A986305E6
:10093000E40AA0EB08000022FD0A44EA47540A300A
:1009400002D500200146E9E7010510196941DDE9FA
:10095000084500196941BDE8F04DA2E770B521F0E6
:10096000004303430CD0C1F30A550024D5EB040522
:1009700064EB0403D617AD1AB34102DB0020014635
:1009800070BD201841EB025170BD000030B5041E4F
:1009900071F1000404DB4FF00044404264EB0101BC
:1009A000141E73F1000405DB1C464FF00043524255
:1009B00063EB04038B4208BF824230BD064C074DF7
:1009C00006E0E06840F0010394E80700984710341F
:1009D000AC42F6D3FFF78EFB80690008A0690008DF
:1009E000202A04DB203A21FA02F00021704721FA84
:1009F00002F3D040C2F120029140084319467047EB
:100A00002DE9F04D00231A461B1A8A4103DB002012
:100A10000146BDE8F08DC1F30A52C1F3130141F460
:100A200080154FF0000BD10702D100186D41521E06
:100A30000027044640F2FF11384601EB620A3E46A9
:100A40008046024600204FF48011FFF7C9FFC2190B
:100A50007141BB1846EB0100B4EB030C75EB000CC5
:100A600004D3E41A65EB000517460E46241908F175
:100A700001006D4180463428E3DDF91946EB06009C
:100A8000091BA84103D24FF0FF32134601E00022B8
:100A900013461BEB070046EB0A51BDE8F04DFFF78C
:100AA00000BF70B58C1810F8015B15F0070301D179
:100AB00010F8013B2A1106D110F8012B03E010F8C1
:100AC000016B01F8016B5B1EF9D12B0705D40023E4
:100AD000521E0DD401F8013BFAE710F8013BCB1A86
:100AE000921C03E013F8015B01F8015B521EF9D57B
:100AF000A142D8D3002070BD21B1826842F001022A
:100B0000826003E0826822F001028260704721B1B6
:100B1000826842F48072826003E0826822F480720C
:100B200082607047014600208A6802F004020AB120
:100B3000012000E00020704730B50246002000236D
:100B400050680F4C20400D790C6844EA052420437E
:100B5000506090680B4C2040D1E902542C434D79F1
:100B600044EA450420439060D06A20F470000C7C75
:100B7000641EE4B2234340EA0350D06230BD00005B
:100B8000FFFEF0FFFDF7F1FFF0B504460D46002033
:100B90000021092D11DDE068A5F10A0606EB4607E4
:100BA000072606FA07F18843A5F10A0606EB460672
:100BB00003FA06F10843E0600CE0206905EB450705
:100BC000072606FA07F1884305EB450603FA06F106
:100BD00008432061072A0FDA606B561E06EB860772
:100BE0001F2606FA07F18843561E06EB860605FA0D
:100BF00006F10843606322E00D2A0FDA206BD61F4E
:100C000006EB86071F2606FA07F18843D61F06EB78
:100C1000860605FA06F10843206310E0E06AA2F1B7
:100C20000D0606EB86071F2606FA07F18843A2F198
:100C30000D0606EB860605FA06F10843E062F0BDF4
:100C400021B1826842F4A002826003E0826822F44B
:100C5000A00282607047816841F0040181607047A2
:100C600000BFFEE721B1026842F00102026004E029
:100C700002684FF6FE731A400260704701684FF633
:100C8000FE72114001600021016041608160C1601D
:100C90004B49884208D14A490839496841F00F0157
:100CA000474A083A51608AE045491431884208D1E0
:100CB00043490839496841F0F001414A083A516016
:100CC0007DE03F492831884208D13D4908394968CB
:100CD00041F470613A4A083A516070E038493C3159
:100CE000884208D136490839496841F47041344A8C
:100CF000083A516063E032495031884208D13049A6
:100D00000839496841F470212D4A083A516056E08B
:100D10002B496431884208D129490839496841F48E
:100D20007001274A083A516049E0254978318842E4
:100D300008D123490839496841F07061204A083ACE
:100D400051603CE01F49884206D1011F096841F00B
:100D50000F01021F116032E01A491431884208D194
:100D60001849091F096841F0F001164A121F116065
:100D700025E014492831884208D11249091F096821
:100D800041F470610F4A121F116018E00D493C31A7
:100D9000884208D10B49091F096841F47041094A8A
:100DA000121F11600BE007495031884207D10549F5
:100DB000091F096841F47021024A121F116070472F
:100DC00008000240080402400146486880B27047AB
:100DD00010B50022026847F6F0739A430C6A8B68DC
:100DE00023430C6923434C6923438C692343CC6917
:100DF00023434C6A23438C6A23431A430260CB6823
:100E000043600B6883604B68C36010BD41607047EE
:100E100038B5002000906B4601227521682003F050
:100E2000CBF903F0E7FBE0B9782004F0BDF97820B6
:100E300003F0B2FAC82004F069F902F0E3F90948B6
:100E400003F025FA044602F037FC40F2731002F07A
:100E500081F8C82002F060FB04F074FA012004F06D
:100E600051F838BDDC0100207047000010B5034880
:100E700000F050F802480068804710BDFFFF0F00E7
:100E80001C00002010B5034800F044F80248006838
:100E9000804710BDFFFF0F001C00002010B5034865
:100EA00000F038F802480068804710BDFFFF0F00CF
:100EB0001C00002010B5034800F02CF80248006820
:100EC000804710BDFFFF0F001C00002010B5034835
:100ED00000F020F802480068804710BDFFFF0F00B7
:100EE0001C00002010B5034800F014F80248006808
:100EF000804710BDFFFF0F001C00002010B5034805
:100F000000F008F802480068804710BDFFFF0F009E
:100F10001C000020014908607047000014040140D3
:100F20002DE9F04102460025002600200023002480
:100F3000002791F803C00CF00F0591F803C00CF0E6
:100F4000100CBCF1000F03D091F802C04CEA05056B
:100F500091F800C0BCF1000F31D0146800202BE0E4
:100F60004FF0010C0CFA00F3B1F800C00CEA0306D4
:100F70009E4220D183004FF00F0C0CFA03F7BC43C4
:100F800005FA03FC4CEA040491F803C0BCF1280FF5
:100F900006D14FF0010C0CFA00FCC2F814C00AE0B4
:100FA00091F803C0BCF1480F05D14FF0010C0CFAC9
:100FB00000FCC2F810C0401C0828D1D31460B1F85E
:100FC00000C0BCF1FF0F34DD546800202EE000F1BA
:100FD000080C4FF0010808FA0CF3B1F800C00CEA55
:100FE00003069E4221D183004FF00F0C0CFA03F749
:100FF000BC4305FA03FC4CEA040491F803C0BCF1BD
:10100000280F05D100F1080C08FA0CF8C2F814807A
:1010100091F803C0BCF1480F07D100F1080C4FF064
:10102000010808FA0CF8C2F81080401C0828CED33A
:101030005460BDE8F0810000F0B50A4600230024AA
:101040000021002500F00046B6F1004F02D11D4EF0
:10105000F16901E01B4E7168C0F3034583B200F4EF
:101060004016B6F5401F08D121F07061154E766824
:1010700026F07066134F7E6012E000F48016B6F51D
:10108000801F06D1032606FA05F4A14341F07061E2
:1010900006E0460D360103FA06F6B14341F07061F1
:1010A00022B1460D360103FA06F6314300F0004640
:1010B000B6F1004F02D1034EF16101E0014E7160C3
:1010C000F0BD00000000014000BFFEE770B505461E
:1010D0000E46002400F0EAF8284600F0B5F8641C3B
:1010E00000F03CF9304600F0AFF8641C00F036F92F
:1010F00000F0DCF8691CC8B200F0A6F8641C00F02F
:101100002DF9002000F068F8044600F003F92046AD
:1011100070BD000010B500200E4908600E48006840
:1011200020F0F0000C4908600846006840F03000EC
:10113000086000200949C1F8A401012001F022FE45
:1011400001200449086001F01DFE00200349C1F898
:10115000A00110BDA0812142040C01400080214269
:1011600008B50121082000F07BFA4FF44070ADF87B
:10117000000010208DF8030003208DF8020069465E
:101180000148FFF7CDFE08BD000C014010B500205E
:101190000E4908600E48006820F0F0000C49086015
:1011A0000846006840F03000086001200949C1F895
:1011B000A40101F0E7FD01200449086001F0E2FD0F
:1011C00000200449C1F8A00110BD0000A081214207
:1011D000040C01400080214270B5054600241748E8
:1011E000006820F0F000154908600846006840F0EB
:1011F00080000860002616E00020114908600220E7
:1012000001F0C0FD01200F49C1F8A0016006040EE5
:101210000B487C38006808B1601CC4B2022001F0A1
:10122000B1FD701CC6B2082EE6DB15B1FFF772FFE8
:1012300001E0FFF7ABFF204670BD0000040C014049
:10124000A08121420080214270B504461448006804
:1012500020F0F000124908600846006840F03000B5
:10126000086000200F490860002516E0E0090D49DC
:10127000091D08606006040E012001F083FD0120B5
:101280000949C1F8A00101F07DFD00200549086071
:10129000012001F077FD681CC5B2082DE6DB70BDAA
:1012A000040C0140A08121420080214210B5164863
:1012B000006820F0F000144908600846006840F01B
:1012C000300008600120114908601148D0F824015D
:1012D00008B9002010BD01200C49091F086001F069
:1012E00051FD00200A49C1F8A4010848803800686F
:1012F00008B10020EEE7012001F044FD0020034981
:10130000091F08600120E5E7040C0140A481214287
:101310000080214210B50E48006820F0F0000C4912
:1013200008600846006840F0300008600020094965
:1013300008600949C1F8A401012001F023FD012042
:10134000044908600449C1F8A40101F01BFD10BD67
:10135000040C0140A08121420080214210B50024EC
:101360001548006820F0F00013490860084600683E
:1013700040F08000086001201049086001F002FD83
:1013800001200F49C1F8A00101F0FCFC0AE0601C3B
:10139000C4B2322C03DDFFF7BDFF002010BD0120D9
:1013A00001F0F0FC0548803800680028EFD10349BF
:1013B000091F08600120F1E7040C0140A4812142CB
:1013C0000080214270B505460E4614463146284637
:1013D000FFF77CFE2070012070BDF8B506460F4671
:1013E00014461D466A4639463046FFF7EBFF2DB1DD
:1013F0000120A0409DF80010084305E00120A04016
:101400009DF8001021EA0000C0B200909DF8002075
:101410003946304600F036F8F8BD2DE9F843074666
:10142000884614461D46089E6A4641463846FFF7E0
:10143000C9FF28B3601CFF2101FA00F0C4F10801C4
:101440002944491EFF220A41104300F0FF09C5F15B
:10145000080006FA00F0C6B2C4F1070006419DF884
:10146000000000EA090000909DF800003043009061
:101470009DF800204146384600F004F8BDE8F883A6
:101480000020FBE737B504460D4602AB0122294692
:10149000204600F001F83EBD2DE9F04180460D46A2
:1014A00016461F460024FFF701FF4046FFF7CCFE1B
:1014B000FFF754FF2846FFF7C7FEFFF74FFF00BFB7
:1014C00006E0385DFFF7C0FEFFF748FF601CC4B2BE
:1014D000B442F6DBFFF71EFF0120BDE8F08110B536
:1014E000022000F010F8032000F021F8002000F0A6
:1014F00014F8002000F037F8002000F02BF800204E
:1015000000F01FF810BD38B50446032302226B21FA
:10151000D0200094FFF781FF38BD38B50446022380
:1015200004221C21D0200094FFF777FF38BD38B586
:101530000446022304221B21D0200094FFF76DFFF4
:1015400038BD10B50446234601223721D020FFF7CD
:1015500044FF10BD10B50446234605226A21D02061
:10156000FFF73BFF10BD10B50446234606226B2152
:10157000D020FFF732FF10BD00BFFEE7704700002C
:1015800070B5002100230F22C47804B3154C2468E1
:1015900004F4E064C4F5E064210AC1F10403CA4024
:1015A000447804FA03F184781440214309010E4C75
:1015B0000678A155047804F01F050124AC40057895
:1015C0006D11AD0005F1E025C5F8004109E0047892
:1015D00004F01F050124AC40044D0678761145F84F
:1015E000264070BD0CED00E000E400E080E100E08A
:1015F00002490143024A1160704700000000FA05E9
:101600000CED00E07047000001460020034A5068DE
:1016100020F4404008435060704700000010024032
:1016200029B1064A52690243044B5A6104E0034A55
:1016300052698243014B5A6170470000001002401A
:1016400029B1064AD2690243044BDA6104E0034A35
:10165000D2698243014BDA617047000000100240FA
:1016600029B1064A92690243044B9A6104E0034A95
:1016700092698243014B9A6170470000001002405A
:1016800030B500210022002400232D4D6D6805F0A7
:101690000C0121B1042905D0082923D105E0294DE9
:1016A000056022E0274D05601FE0254D6D6805F4BB
:1016B0007012234D6D6805F48034022505EB9242CB
:1016C0001CB9214D554305600BE01D4D6D6805F4B7
:1016D00000351DB11C4D5543056002E0194D5543C1
:1016E000056002E0174D056000BF00BF144D6D6836
:1016F00005F0F0010909154D6B5C0568DD4045609A
:101700000F4D6D6805F4E061090A104D6B5C45688A
:10171000DD4085600A4D6D6805F46051C90A0B4DC6
:101720006B5C4568DD40C560054D6D6805F4404162
:10173000890B074D6B5CC568B5FBF3F5056130BDE2
:101740000010024000127A0000093D000000002055
:10175000100000202DE9F04F8FB00CA889490DAB87
:1017600008AACDE900108849884801F057FD85484E
:10177000008800F4807000287ED00898FEF774FF7F
:1017800004464FF09D41FEF7A9FD81490860099884
:10179000FEF76AFF04464FF09D41FEF79FFD7D492D
:1017A00008600A98FEF760FF04464FF09D41FEF77F
:1017B00095FD794908600B98FEF756FF04464FF0F7
:1017C0009D41FEF78BFD75490860714801684FF037
:1017D0008040FEF751FD06906F4801680698FEF7BD
:1017E0004BFD82466B4801684FF04040FEF744FDD8
:1017F00006906A4801680698FEF73EFD834651460A
:10180000FEF7E2FC0790FEF76AFF804600F02AFF31
:1018100006464FF06632624BFEF745FE0446FEF781
:1018200071FF604908605C4801684FF08040FEF736
:1018300023FD0390584801680398FEF71DFD82467A
:10184000544801684FF04040FEF716FD03905148A0
:1018500001680398FEF710FD83465146FEF706FD2A
:1018600081464FF07E51FEF7AFFC0446FEF737FF8E
:10187000CDE90401464800E081E001684FF0804076
:10188000FEF7FAFC8346434801685846FEF7F4FC2D
:101890008146414801684FF08040FEF7EDFC8346E9
:1018A0003E4801685846FEF7E7FC82464946FEF787
:1018B0008BFC0446FEF713FF0746DDE9042301F025
:1018C00019F94FF06632364BCDE90601FEF7EBFD14
:1018D0000546FEF717FF3449086030480168006884
:1018E000FEF7CAFC03902C4801680068FEF7C4FCB0
:1018F0000290284801680068FEF7BEFC8346244831
:1019000001680068FEF7B8FC59460190FEF75CFCE0
:1019100082460299FEF7AAFC81460399FEF7A6FCCF
:101920000446FEF7DCFECDE904011C4801681848B6
:101930000068FEF7A1FC8246174801681548006858
:10194000FEF79AFC83465146FEF73EFC81464FF077
:101950008041FEF791FC0446FEF7C1FE0746DDE933
:10196000042301F0C7F84FF066320D4BCDE90601B4
:10197000FEF799FD0546FEF7C5FE0C4908600FB05D
:10198000BDE8F08FBC010020B6010020B0010020AE
:10199000CC010020D0010020D4010020D80100207B
:1019A00066A64C40C0010020C4010020C8010020F0
:1019B000704710B500F002F810BD00000CB5002013
:1019C000019000903348006840F48030314908604D
:1019D00000BF3048006800F4003000900198401CBF
:1019E0000190009818B90198B0F5A06FF1D129487D
:1019F000006800F4003010B10120009001E00020E8
:101A000000900098012843D12348006840F010005E
:101A1000214908600846006820F003000860084675
:101A2000006840F0020008601A48406819494860A0
:101A30000846406848600846406840F48060486056
:101A40000846406820F47C1048600846406840F42E
:101A5000E81048600846006840F08070086000BFE9
:101A60000C48006800F000700028F9D00948406870
:101A700020F00300074948600846406840F0020033
:101A8000486000BF0348406800F00C000828F9D106
:101A90000CBD00000010024000200240042808D1C4
:101AA0004FF0E021096941F004014FF0E02211619B
:101AB00007E04FF0E021096921F004014FF0E02236
:101AC000116170477047000010B51348006840F07E
:101AD00001001149086008464068104908400E4955
:101AE0004860084600680E4908400B4908600846EF
:101AF000006820F4802008600846406820F4FE005A
:101B000048604FF41F008860FFF753FF4FF00060FC
:101B10000449086010BD0000001002400000FFF8FA
:101B2000FFFFF6FE08ED00E02DE9F0419EB0012137
:101B3000544800F0E5F802F041FD534800F06CFD18
:101B400052485349534A544BCDE90932CDE90B1061
:101B500052485349534A544BCDE90532CDE9071059
:101B600052485349534A544BCDE90132CDE9031051
:101B70005248534B534A54490090022003F0B6FD9B
:101B8000524953480068FEF71FFB524908603E491E
:101B90000988C1F58050FEF767FD4F490860484944
:101BA0000968454A12688818FEF75EFD4B490860CF
:101BB0003D4909683A4A12681144374A1268881840
:101BC000FEF752FD4649086031480068FEF74CFDBB
:101BD0004449086000201A901B901C901D9016909C
:101BE00017901890199012901390149015900E90D1
:101BF0000F90109011900A900B900C900D90069001
:101C0000079008900021099036480268344800681F
:101C1000324B1B68CDE90230CDE904212E48006823
:101C20002C49096800231A46CDE900101946032003
:101C300003F064FC2B480068FEF724FD04462848A6
:101C40000068FEF71FFD054624480068FEF71AFDF0
:101C5000064621480068FEF715FD07461D48006846
:101C6000FEF710FD804633463A4641461EA0CDE9B8
:101C7000005400F013FA21A000F010FA1EB0BDE8E5
:101C8000F0810000000800401401002054010020F1
:101C9000500100204C010020480100204401002098
:101CA000400100203C0100203801002034010020C8
:101CB000300100202C0100202801002024010020F8
:101CC000200100201C010020180100200000B44267
:101CD000F4000020580100205C0100206001002079
:101CE000640100206801002025356420253564202A
:101CF0002535642025356420253564000D0A000053
:101D0000CA430282704721B1028842F00102028078
:101D100004E002884FF6FE731A40028070471AB141
:101D200083890B43838102E083898B4383817047DE
:101D3000002202881D4B98420ED01D4B98420BD0BA
:101D4000B0F1804F08D01B4B984205D01A4B9842F7
:101D500002D01A4B984204D14FF68F731A404B8829
:101D60001A43174B984207D0164B984204D04FF6AF
:101D7000FF431A40CB881A4302808B8883850B88E7
:101D800003850A4B98420BD0094B984208D00E4B62
:101D9000984205D00D4B984202D00D4B984201D18C
:101DA0000B7A03860123838270470000002C0140D8
:101DB000003401400004004000080040000C0040D6
:101DC0000010004000140040004001400044014069
:101DD0000048014010B5012000F002F910BD10B517
:101DE000022000F0FDF810BD10B5032000F0F8F857
:101DF00010BD10B50022002340F66A14A14200D1A4
:101E000000BF0A1201249440A3B2DC43048010BD39
:101E100021B1828942F40052828104E082894DF628
:101E2000FF731A40828170471AB1838A0B43838201
:101E300002E0838A8B438382704702460020B1F51B
:101E4000007F00D100BF13880B400BB1012000E0E0
:101E50000020704770B502460024002300250020B2
:101E600040F66A16B14200D100BFC1F3421501F03D
:101E70001F03012606FA03F3012D02D19689334090
:101E800006E0022D02D1168A334001E0968A3340E3
:101E90000C12012606FA04F41688344013B10CB172
:101EA000012000E0002070BDF0B5034600240026AC
:101EB0000025002040F66A17B94200D100BF18463D
:101EC000C1F3421401F01F06012707FA06F5012CA1
:101ED00001D10C3004E0022C01D1103000E01430AC
:101EE0001AB107682F43076002E00768AF43076035
:101EF000F0BD00002DE9F04786B005460E460024EF
:101F0000A24600BFA1460027B08900B100BF2F46FE
:101F10002C8A4CF6FF700440F08804432C82AC8974
:101F20004EF6F3100440B0883189084371890843A4
:101F30000443AC81AC8A4FF6FF400440B0890443AF
:101F4000AC8201A8FFF79CFB1F48874202D1DDF855
:101F500010A001E0DDF80CA0A88900F4004040B119
:101F60000AEBCA0000EB0A1031684900B0FBF1F837
:101F700007E00AEBCA0000EB0A1031688900B0FBE9
:101F8000F1F86420B8FBF0F004012009642101FBA2
:101F90001089A88900F4004040B1322000EBC9004C
:101FA000B0FBF1F000F00700044308E0322000EB42
:101FB00009106421B0FBF1F000F00F0004432C8104
:101FC00006B0BDE8F087000000380140014688886F
:101FD000C0F308007047C1F3080282807047000018
:101FE00070B5044600260025641E254951F82400DA
:101FF00040F22441FFF72EFF002840D0204951F83D
:102000002400FFF7E3FF1F4951F824000021FEF7E9
:1020100029FE1C4951F82400FEF7D6FEC0F1C80085
:10202000C6B2194850F82400066000BF0DE004EB6A
:10203000C40000EB0410154901EBC000405D1449D9
:1020400051F824104855681C85B2B54204DA11488D
:1020500050F82400A842EAD8094951F8240040F277
:102060002441FFF7C6FE074951F82400C821FEF7B6
:10207000CDFE044951F824000121FEF7F3FD70BDA7
:1020800020000020DC000020540600200802002070
:102090002C0600204006002000BFFEE70FB4054BD1
:1020A00010B503A9044A029800F09AF810BC5DF834
:1020B00014FB0000CD3A0008EC010020490050EA72
:1020C000C12018BF04204A0D18BF40F0010040F2A3
:1020D000FF72B2EB515F08BF40F00200012808BF59
:1020E000052070472DE9F0414F1E00EBC701044663
:1020F000D1E9000115461E4637F006020DD02A46EA
:102100003346FEF7D0F97F1E04EBC703D3E9002363
:10211000FEF722F937F00602F1D1022F25D0042F65
:1021200013D0062F18BFBDE8F0812A463346FEF7CC
:10213000BAF9D4E90A23FEF70FF92A463346FEF727
:10214000B2F9D4E90823FEF707F92A463346FEF729
:10215000AAF9D4E90623FEF7FFF82A463346FEF72C
:10216000A2F9D4E90423FEF7F7F82A463346FEF72E
:102170009AF9D4E90223FEF7EFF82A463346FEF730
:1021800092F9D4E90023BDE8F041FEF7E5B8012259
:10219000FEF7E4BBFEF7E0B80022134610461146F6
:1021A000FEF7F3B9024A00201107FEF7D7BB000083
:1021B00001FDFFFF02E008C8121F08C1002AFAD182
:1021C00070477047002001E001C1121F002AFBD1B7
:1021D000704700000149086070470000F0010020CE
:1021E0002DE9FF4F8BB088460546002606E02528DE
:1021F0000BD0DDE90D1290476D1C761C2878002865
:10220000F5D10FB03046BDE8F08F0024A146A246BC
:102210000122AE4900E0044315F8013F203B02FAD9
:1022200003F00842F7D128782A2810D06FF02F0247
:102230002878A0F13001092915D809EB890102EBB2
:10224000410144F0020400EB01096D1CF0E758F86D
:10225000041B5FEA010903D544F40054C9F10009E5
:1022600044F002046D1C28782E2817D115F8010FB0
:1022700044F004042A280ED06FF02F022878A0F131
:10228000300109290AD80AEB8A0102EB410100EB6F
:10229000010A6D1CF2E758F804AB6D1C28786C2815
:1022A0000FD006DC4C2817D068280DD06A2814D12E
:1022B00004E0742810D07A280FD10DE044F4001403
:1022C0000AE044F4801401E044F440146978814247
:1022D00002D104F580146D1C6D1C2878692865D026
:1022E00006DC00288DD0632827D0642806D15DE065
:1022F0006E2808D073282AD0752877D0DDE90D1212
:102300009047761CE0E0C4F30250022809D003286D
:102310000DD0D8F8001004280DD00E6008F1040884
:10232000D2E0D8F80010F217C1E90062F6E7D8F859
:1023300000100E80F2E70E70F0E718F8041B8DF81D
:10234000001000208DF80100EB46012003E058F852
:1023500004BB4FF0FF3061074FF0000701D40AE0E3
:102360007F1C57450DDA8742FADB1BF8071000295E
:10237000F6D106E07F1C8742FCDB1BF80710002922
:10238000F8D1DDE90D23A9EB07008146214600F0D5
:10239000B1F83044C61904E0DDE90D121BF8010B59
:1023A00090477F1EF8D22146484688E058F8040B33
:1023B000C4F302514FF00A0B032900D100B20429E3
:1023C00000D140B2002802DA40422D2102E021056E
:1023D00005D52B218DF82410012104E006E0E1074A
:1023E00010D02021F6E708AF089113E058F8040B4D
:1023F000C4F302514FF00A0B032900D180B2042923
:1024000000D1C0B20021EEE75946FEF7ABF93031FA
:1024100007F8011D0028F7D1ADEB070000F1200BF4
:10242000600702D524F4803401E04FF0010ADA4558
:1024300002DDAAEB0B0000E00020824600EB0B015E
:1024400008980144A9EB01000A90E00306D4DDE9F5
:102450000D2321460A9800F04DF806444FF000097C
:1024600008E009A911F80900DDE90D12904709F10A
:102470000109761C08998945F3DBE0030CD5DDE9F9
:102480000D2321460A9800F035F8064404E0DDE902
:102490000D1230209047761CBAF10001AAF1010A12
:1024A000F5DC05E0DDE90D1217F8010B9047761C0D
:1024B000BBF10001ABF1010BF4DC0A982146DDE928
:1024C0000D2300F005F806446D1C97E6092801006D
:1024D0002DE9F041044600251E461746880404D421
:1024E00005E039462020B0476D1C641EF9D528460A
:1024F000BDE8F0812DE9F041044600251E469046D6
:10250000C80301D5302700E02027880404D505E062
:1025100041463846B0476D1C641EF9D52846BDE8D3
:10252000F08100002DE9FE4F06460F460025684663
:1025300001F0DEFA002442E056F8240057F8241097
:10254000A0EB010ABAF1000F01DB514601E0CAF12C
:1025500000010846FEF788F883464FF08F41FDF7EB
:10256000BDFE80465DF824000021FEF7E7F816D096
:102570005DF824104046FDF7B1FE82464FF07E51D3
:10258000FDF774FE814629F0004A0F48416A504623
:10259000FEF7DEF812D20120A04005430EE00A4803
:1025A000C1694046FEF7CAF805D30748016A4046AC
:1025B000FEF7CEF802D20120A0400543641C032C94
:1025C000BADB2846BDE8FE8F6C5C000800B585B01C
:1025D00001214802FFF744F80020009001208DF807
:1025E00004008DF805008DF81000002003904FF4D2
:1025F0006020029069460748FEF79EFA4FF440407B
:10260000FFF702F80523012200210248FEF7BCFA79
:1026100005B000BD002401400149098801807047D0
:102620008001002010B501F02DFD00F045FCFFF702
:10263000CDFF01210A48FEF76AFA01210848FEF79A
:102640005BFA0748FEF707FB00BF0548FEF76AFA8A
:102650000028FAD101210248FEF7F2FA10BD00006D
:10266000002401402DE9F04D8D4F21F0004A86B045
:1026700005460C46BA452ADBAAEB070028430AD0D8
:102680008848824501DC1AD1CDB106B02846BDE8A4
:10269000F04DFFF77CBD844A844B2846FDF703FFCD
:1026A00007460E46824A834B28462146FDF7FBFE2D
:1026B00006B03A463346BDE8F04DFDF74DBE012069
:1026C000FFF788FD06B0BDE8F04DFFF765BD7A481D
:1026D000824542DABAF1795F0BDA2846FFF7EEFC61
:1026E000042808BFFFF75EFD284606B02146BDE876
:1026F000F08D2A460B461046FDF7D5FE834602466E
:102700006E480E460B4606217844FFF7EBFC5A460E
:102710003346FDF7C8FE804669488A465A46334626
:1027200004217844FFF7DEFC5A463346FDF7BBFE32
:1027300000223B46FDF710FE02460B46404651463E
:10274000FDF723FF2A462346FDF7ADFE06B02A46D5
:102750002346BDE8F04DFDF7FFBD284624F00041BB
:1027600000223D463B46FDF79BFE4FF0FF32FEF751
:10277000F5F80646024653480F460B4606217844B4
:10278000FFF7B0FC32463B46FDF78DFECDE9000178
:102790004D4832463B4604217844FFF7A3FC3246BD
:1027A0003B46FDF780FE00222B46FDF7D5FD834614
:1027B00002913046394602F055FE804643480D46A8
:1027C000504517DCDDE900015A46029BFDF7DDFEAE
:1027D00042462B46FDF767FE42462B46FDF7BCFD01
:1027E0000122FEF7BBF8304A304BFDF756FE304A67
:1027F000304B4CE04FF0000A52460B464046FDF786
:10280000ABFDCDE9031052462B4610461946FDF7A5
:102810004AFE32463B46FDF743FEDDE90332FDF753
:10282000B4FE06460F46DDE900015A46029BFDF75D
:10283000ACFE83460091012230463946FEF78EF801
:10284000194A1A4BFDF72CFE06460F460122404658
:102850002946FEF783F85A46009BFDF724FE3246D0
:102860003B46FDF71AFE06460F4601225046294612
:10287000FEF774F80E4DDFF858802A464346FDF700
:102880000FFE32463B46FDF70BFE2A464346FDF758
:1028900007FE002CD8BF81F0004106B0BDE8F08DE6
:1028A0000000F03F0000F07F075C143326A6913C47
:1028B000182D4454FB21F93F0000E03F8441000003
:1028C0009A4100000E410000244100003333EF3FE5
:1028D000FB21E93F2DE9F84F04460D4621F0004069
:1028E00000917349814211DC7249884201DC06D1B2
:1028F0002CB120462946BDE8F84FFFF748BC6E488A
:10290000002DCCBF6D496E49BDE8F88F6D498142FD
:1029100011DD6D498142D8BF4FF0FF366DDD204695
:102920002946FFF7CBFB042808BFFFF73BFC2046F6
:102930002946BDE8F88F6549654F25F0004581427D
:1029400033DD6449814219DD002632464FF0804371
:1029500020462946FDF700FD80468A460122204692
:102960002946FDF7FBFF00223B46FDF796FD424658
:102970005346FDF70AFE04460D463EE001260022BE
:10298000BA463B4620462946FDF7E6FC80460F4600
:102990000022534620462946FDF77FFD42463B462E
:1029A000FDF7F3FD04460D4627E04B4981421BDD50
:1029B000DFF828A102260022534620462946FDF7CB
:1029C00072FD00223B46FDF7C7FC80460F46002201
:1029D000534620462946FDF760FD42463B46FDF73B
:1029E000D4FD04460D4608E0032622462B4600206F
:1029F0003B49FDF7CAFD04460D4622462B461046CC
:102A00001946FDF750FD8B46824602460B46FDF700
:102A10004AFD07460246334888460B46062178445D
:102A2000FFF760FB52465B46FDF73DFD82462E48B0
:102A30008B463A46434605217844FFF753FB3A4616
:102A40004346FDF730FD02460B46002E50465946E0
:102A50000CDAFDF781FC22462B46FDF724FD01B080
:102A600022462B46BDE8F04FFDF71ABDFDF774FC7A
:102A700022462B46FDF717FD1C4A7A4402EBC6039B
:102A8000D3E90023FDF709FD22462B46FDF705FD9E
:102A9000174A7A4402EBC603D3E90023FDF700FD91
:102AA000009A002AB8BF81F00041BDE8F88F00000D
:102AB000000010440000F07F182D4454FB21F93F22
:102AC000FB21F9BF0000DC3F0000203E0000F33F87
:102AD0000000F03F0000E63F008003400000F83FA8
:102AE0000000F0BF263F0000E43E0000823E0000F0
:102AF0004A3E00002DE9F04D9446CCF1000423F04D
:102B000000464CEA0404594F46EAD4749A46884673
:102B100021F00042BC4206D8454240EA050442EAA0
:102B2000D474BC4204D9BDE8F04D6246FFF732BB15
:102B3000AAF14055A5F17F6555EA0C040BD002249B
:102B400004EAAA744A4DDFF82CE144EAD87452EA48
:102B5000000B04D00CE0BDE8F04DFFF7BBBE002C2D
:102B600014BF012CBDE8F08D022C30D0032C32D0E4
:102B700056EA0C0B0AD0BE4220D1BA4209D126F047
:102B8000804622F080423346114617E000291ADBC6
:102B900025E0DFF8E4B0FB44002C04BFDBE90001D2
:102BA000BDE8F08D012C02BFDBE9000181F000419E
:102BB000BDE8F08D022C0AD0032C0CD0BA4212D101
:102BC000B8F1000F0BDA2A482C49BDE8F08D2846F1
:102BD0002B49BDE8F08D28467146BDE8F08D2448AC
:102BE0002849BDE8F08D921B12153C2AC4BF204F26
:102BF000244E10DCBAF1000FBEBF12F13C0F0027CB
:102C00003E4608DB6246FDF7C0FC21F00041FFF7BD
:102C100061FE07460E4694B1012C08BF86F00046BF
:102C20000DD0194A194B022C3846314615D0FDF704
:102C300034FC2A46BDE8F04D114BFDF72EBC0022B6
:102C4000134638463146FDF7A1FE04BF0220FFF7C8
:102C5000C1FA38463146BDE8F08DFDF71EFC2A4624
:102C6000BDE8F04D064BFDF71BBC00000000F07FF7
:102C7000182D4454FB2109C0DE3D0000FB21F9BFA3
:102C8000FB210940FB21F93F075C143326A6A13C38
:102C90002DE9F0410446E07800F0C006E07800F04D
:102CA0003F05607800F0010098B1EF102846E91761
:102CB00005EB5171C910A5EBC101491C01F0FF08DA
:102CC0000B48006820B10A484146026838469047E0
:102CD00000BF607800F0080030B10548406818B1C6
:102CE000B011034A516888470020BDE8F081000018
:102CF000080D002010B56FF00400FEF7CFFE0A4863
:102D000000680A49B0FBF1F00949087008460078EC
:102D100000EB4001C1EBC0104FF6FF7101EAC000AB
:102D20000449088010BD00006C01002000127A00E8
:102D300014000020160000200146114A12884A4360
:102D40004FF0E0235A6100229A611A46126942F05C
:102D500001021A6100BF4FF0E022106900F0010289
:102D60001AB100F48032002AF5D04FF0E022126947
:102D700022F001024FF0E0231A6100229A617047AD
:102D8000160000200146114A12784A434FF0E02312
:102D90005A6100229A611A46126942F001021A61D0
:102DA00000BF4FF0E022106900F001021AB100F4F8
:102DB0008032002AF5D04FF0E022126922F00102A1
:102DC0004FF0E0231A6100229A617047140000203E
:102DD00010B58CB00446194951F824000121FEF7C2
:102DE0001FFC04EBC40000EB0410154901EBC0000C
:102DF0000290144850F82400001D01900020039018
:102E0000C8200490002008908020069000200790A1
:102E1000059009904FF400500A9000200B900A4949
:102E200051F8240001A9FDF7D3FF074951F8240008
:102E30000121FDF717FF0CB010BD0000B400002009
:102E40000802002020000020DC00002010B58CB01B
:102E50000446154951F824000121FEF7E1FB13480F
:102E600050F824000290124850F82400001D0190F0
:102E700010200390002004900890802006900020ED
:102E80000790059009900A900B900A4951F8240088
:102E900001A9FDF79DFF074951F824000121FDF725
:102EA000E1FE0CB010BD0000B400002004060020BC
:102EB00020000020C800002000B58BB0012108468A
:102EC000FEF7AEFB1148FDF7D9FE114800901148FE
:102ED0000190002002900120039000020690002043
:102EE00004904FF480600790802005902020089087
:102EF000002009900A9069460448FDF769FF012106
:102F00000248FDF7AFFE0BB000BD00000800024014
:102F10004C2401408001002038B5044664B12020D3
:102F20008DF8000028208DF8010030208DF8020077
:102F300038208DF8030004E0A32204216846FDF741
:102F400024F96A46042140F69E2002F095F901F02A
:102F500085FD38BD3EB5044602208DF80000CA202C
:102F60008DF80100E3208DF8020009208DF80300A0
:102F70006A460421682002F07FF9A3208DF8000042
:102F800004F0400048B1C0208DF80100C8208DF841
:102F90000200C2208DF8030006E0A3208DF8010096
:102FA0008DF802008DF8030004F4C07048B1C4200D
:102FB0008DF80400CC208DF80500C6208DF80600A1
:102FC00006E0A3208DF804008DF805008DF80600BA
:102FD000A3208DF807008DF808008DF809006A46D7
:102FE0000A2140F6A72002F047F904F0030018B1C7
:102FF00020208DF8000002E0D8208DF800006A46FD
:10300000012140F6B62002F037F904F0200018B193
:10301000012000F0ADF802E0002000F0A9F804F46F
:10302000C07008B304F4807060B1B2208DF8000065
:103030008B208DF80100B6208DF802009B208DF8C2
:1030400003000BE0B0208DF8000080208DF8010017
:10305000B4208DF8020090208DF803006A46042108
:1030600040F6A22002F008F904F0010020B3F82095
:103070008DF800006A4601214FF40B6002F0FCF865
:10308000FA21072000F02CFC072000F0F3FB0120C0
:1030900000F013FC642000F0F3FC4FF4FA7000F031
:1030A00002FDC821304800F0A3FB282000F0BCFB43
:1030B0000A2000F0CCFB08E0D8208DF800006A461A
:1030C00001214FF40B6002F0D7F804F0020018B1B0
:1030D000D9208DF8000002E0D8208DF800006A4663
:1030E000012140F23D7002F0C7F804F0040018B16D
:1030F000012000F069F802E0002000F065F804F01B
:10310000100018B10120FFF707FF02E00020FFF7D1
:1031100003FF44F008001549488101F09FFC00209E
:103120001249887304F0400018B10846807B801D66
:10313000887304F4C07020B10C48807B801D0B495B
:10314000887304F0140020B10848807B10300749D0
:10315000887304F0030020B10448807B001D0349FC
:10316000887300203EBD000009E3CA02080D00205C
:103170003EB504466CB10EA1D1E900208968CDE9C5
:10318000002002916A4609214FF4976002F074F81A
:103190003EBD0AA2D2E900109268CDE90102009179
:1031A0006A4609214FF4976002F066F8F0E70000E4
:1031B000B8AAB38DB4980D355D000000B8AAAAAACC
:1031C000B088C3C5C700000038B5044664B1C0204C
:1031D0008DF80000C2208DF80100C4208DF8020097
:1031E000C6208DF8030004E08B2204216846FCF71A
:1031F000CCFF6A46042140F6982002F03DF801F029
:103200002DFC38BD10B5C8234FF48062024940F64A
:10321000F63001F0B7FA10BD945C00082DE9F04FCC
:103220008DB00746884615469946DDE9166B0024A1
:10323000002030806B49887B5A4605A901F06EFB5F
:1032400018B1601E0DB0BDE8F08F6648807A00F0BE
:103250001400002867D09DF8140000069DF8151092
:1032600040EA01409DF8161040EA01209DF8171031
:10327000084328609DF8180000069DF8191040EAE0
:1032800001409DF81A1040EA01209DF81B100843E8
:1032900068609DF81C0000069DF81D1040EA014082
:1032A0009DF81E1040EA01209DF81F100843A860F9
:1032B0009DF8200000069DF8211040EA01409DF88D
:1032C000221040EA01209DF823100843E86004F131
:1032D0001000C4B2286800140190686800140290BD
:1032E000A86800140390E868001404900198404313
:1032F000029901FB0100039901FB0100049901FB04
:10330000010ABAF1706F02DBBAF1885F05DD01F0E6
:10331000A5FB00203080401E94E7B6F9000040F481
:103320008070308000BF2F48807A00F0400020B3CA
:1033300005A9601C085C095D40EA012000B2A8F8FC
:10334000000005A9E01C095C05AAA01C105C41EA6C
:10335000002000B2A8F8020005A9601D095C201D2C
:10336000105C41EA002000B2A8F80400A01DC4B21D
:10337000B6F9000040F0080030801A48408900F497
:10338000C07008B305A9601C085C095D40EA012013
:1033900000B2388005A9E01C095C05AAA01C105CDD
:1033A00041EA002000B2788005A9601D095C201D5B
:1033B000105C41EA002000B2B880A01DC4B2B6F98A
:1033C000000040F0700030800648807A00F0030072
:1033D00018B105A90819FFF75BFC484601F08CFFFE
:1033E00000202FE7080D002070B588B0064601A820
:1033F00001F030F8BDF804000021C90341EA50454E
:10340000C4034448007A00F0030056F820000590F9
:103410004048007A00F0040010B105984042059041
:103420003C48007AC0F3C10056F8200006903948A5
:10343000007A00F0200010B106984042069035480E
:10344000007AC0F3811056F82000079031480089B7
:1034500000F4807010B10798404207900598C1179A
:10346000A0FB042301FB043100FB0510810041EAAD
:10347000927005900698C117A0FB042301FB04314C
:1034800000FB0510810041EA927006900798C11771
:10349000A0FB042301FB043100FB0510810041EA7D
:1034A000927007900598000E8DF808000598000CA2
:1034B0008DF809000598000A8DF80A000598C0B239
:1034C0008DF80B000698000E8DF80C000698000C85
:1034D0008DF80D000698000A8DF80E000698C0B20F
:1034E0008DF80F000798000E8DF810000798000C5B
:1034F0008DF811000798000A8DF812000798C0B2E5
:103500008DF8130002AA0C214FF4257001F0B4FECF
:1035100008B070BD080D002030B585B0044616A275
:1035200007CA02AB07C3C82C03DD4FF0FF3005B05C
:1035300030BDC82090FBF4F0401E85B2280A8DF8FB
:103540000000E8B28DF801006A46022140F2162020
:1035500001F092FE10B14FF0FF30E8E702AA0C2113
:1035600040F6C12001F088FE10B14FF0FF30DEE7D9
:10357000044884810020DAE7FEF2ABC4AAF1DFDF61
:10358000BBAFDFDF080D00201FB504464848007AB6
:1035900000F0030054F8200001904548007A00F044
:1035A000040010B10198404201904148007AC0F3F4
:1035B000C10054F8200002903D48007A00F020003D
:1035C00010B10298404202903948007AC0F381104D
:1035D00054F8200003903648008900F4807010B140
:1035E0000398404203903349019880FB0101800F0A
:1035F00040EA810001902F49029880FB011082006F
:1036000042EA917002902B49039880FB01108200DE
:1036100042EA917003900198000E8DF80000019825
:10362000000C8DF801000198000A8DF80200019845
:10363000C0B28DF803006A4604214FF4747001F0A3
:103640001BFE18B14FF0FF3004B010BD0298000E01
:103650008DF800000298000C8DF801000298000A15
:103660008DF802000298C0B28DF803006A4604216A
:103670004FF4757001F000FE10B14FF0FF30E3E73A
:103680000398000E8DF800000398000C8DF80100DF
:103690000398000A8DF802000398C0B28DF8030069
:1036A0006A4604214FF4767001F0E6FDCCE7000095
:1036B000080D002009E3CA0210B586B0044647A0F1
:1036C0000068039046A00068029046A00068019040
:1036D00045A00068009004F0030003A9085C8DF881
:1036E000140003A8C4F3C101405C8DF8150003A8C1
:1036F000C4F38111405C8DF8160004F0030002A9A8
:10370000085C8DF8100002A8C4F3C101405C8DF87C
:10371000110002A8C4F38111405C8DF8120005AAC3
:10372000032140F2264001F0A7FD18B14FF0FF3011
:1037300006B010BD04AA032140F22A4001F09CFD0E
:1037400010B14FF0FF30F3E7019805900098049016
:1037500004F0040058B19DF8140040F001008DF809
:1037600014009DF8100040F001008DF8100004F0E6
:10377000200058B19DF8150040F001008DF81500AB
:103780009DF8110040F001008DF8110004F48070E4
:1037900058B19DF8160040F001008DF816009DF814
:1037A000120040F001008DF8120005AA03214FF429
:1037B000886001F061FD10B14FF0FF30B8E704AA56
:1037C000032140F2314001F057FD10B14FF0FF30BE
:1037D000AEE7064804810020AAE700004CCD6C004B
:1037E0000CC92C003656760026466600080D0020CF
:1037F000F8B505460E464FF47A7095FBF0F000FBE5
:1038000006F4200E8DF80000200C8DF80100200A2F
:103810008DF80200E0B28DF803006A4604214FF4EF
:10382000AE7001F029FDF8BD38B50446052094FBC3
:10383000F0F084B220128DF80000E0B28DF80100A3
:103840006A4602214FF4AD7001F016FD38BD38B55F
:103850000446052094FBF0F084B220128DF800009D
:10386000E0B28DF801006A4602214FF4AC7001F01D
:1038700003FD38BD38B504460020009004F0010077
:1038800020B19DF8000040F03000009004F00200EC
:1038900020B19DF8000040F00C00009004F00400FE
:1038A00020B19DF8000040F0030000906A4601211D
:1038B0004FF4A47001F0E0FC38BD38B50446012C8B
:1038C00001DA012402E0042C00DD0424601EC0B2F1
:1038D00000906A46012140F24F1001F0CDFC38BD46
:1038E0002DE9FC4706460F4606F0070010B1B7F574
:1038F000C86F03DD4FF0FF30BDE8FC873846FCF7AA
:10390000BCFE81465949FCF7E9FC8046684600F058
:103910007BFD9DF80000022806D0042816D0082858
:1039200026D0102848D135E04FF08D414046FCF7B5
:10393000A3FC8146FCF7BFFE84B24D494046FCF72C
:103940009BFC8146FCF7B7FE85B238E04FF08C4116
:103950004046FCF791FC8146FCF7ADFE84B2454938
:103960004046FCF789FC8146FCF7A5FE85B226E0BF
:103970004FF08B414046FCF77FFC8146FCF79BFEF5
:1039800084B23D494046FCF777FC8146FCF793FE44
:1039900085B214E04FF08A414046FCF76DFC814649
:1039A000FCF789FE84B235494046FCF765FC814648
:1039B000FCF781FE85B202E04FF0FF309CE700BFCC
:1039C00020128DF80400E0B28DF8050028128DF861
:1039D0000600E8B28DF8070006F00100A0B101AAC8
:1039E00002214FF4EA7001F047FC10B14FF0FF30B4
:1039F00082E70DF1060202214FF4927001F03CFCC7
:103A000010B14FF0FF3077E706F00200A0B101AA35
:103A100002214FF4EC7001F02FFC10B14FF0FF3099
:103A20006AE70DF1060202214FF4947001F024FCC4
:103A300010B14FF0FF305FE706F00400A0B101AA1B
:103A400002214FF4EE7001F017FC10B14FF0FF307F
:103A500052E70DF1060202214FF4967001F00CFCC2
:103A600010B14FF0FF3047E7002045E70000484322
:103A7000000040460000C045000040450000C04432
:103A800038B50446052094FBF0F085B228128DF875
:103A90000000E8B28DF801006A4602214FF4EF7091
:103AA00001F0EAFB38BD38B50446052094FBF0F080
:103AB00085B228128DF80000E8B28DF801006A4640
:103AC00002214FF4ED7001F0D7FB38BD70B504460C
:103AD0000D46E1B20548FEF77EFA00BF40210348DB
:103AE000FEF7ABF90028F9D0204670BD0038014040
:103AF0007CB5054628494968087801AB04220D21A8
:103B000000F05AFB08B107207CBD9DF80700C0F308
:103B100001109DF8041001F0E00140EAE1008DF889
:103B200000009DF80700C0F381009DF8051001F02A
:103B3000E00140EAE1008DF801009DF8070000F087
:103B400003009DF8061001F0E00140EAE1008DF865
:103B5000020000241CE01DF8040018B9002045F8FC
:103B6000240013E00D4845F8240006E055F8240031
:103B70000B49FCF781FB45F824001DF80400401EAA
:103B8000C0B20DF804000028F0D100BF601CC4B220
:103B9000032CE0DB0020B7E7840100207B14AE3E5D
:103BA0001D5A843F2DE9F04F87B005460C469146DB
:103BB00001208DF8100000208DF81100FE4A1268D7
:103BC000917CFD4A5268107804AB022200F02FFB72
:103BD00020B14FF0FF3007B0BDE8F08FC820FFF7ED
:103BE000ABF800208DF81000F34A1268D17BF24A3E
:103BF0005268107804AB012200F019FB10B14FF0AD
:103C0000FF30E8E7EC4A12685179EB4A52681078C5
:103C100004AB012200F00BFB10B14FF0FF30DAE7EC
:103C2000E54A1268917CE44A5268107804AB01229C
:103C300000F0FDFA10B14FF0FF30CCE7DE4A126819
:103C4000D17DDD4A5268107804AB012200F0EFFA12
:103C500010B14FF0FF30BEE7D74A12681179D64A4B
:103C60005268107804AB012200F0E1FA10B14FF075
:103C7000FF30B0E70C208DF81000CF4A12681179A0
:103C8000CD4A5268107804AB012200F0D0FA10B18E
:103C90004FF0FF309FE70F20FFF74EF8C648806ACD
:103CA000407A8DF81000C44A12689178C24A52686E
:103CB000107804AB012200F0BAFA10B14FF0FF30D7
:103CC00089E7BD48806A007A8DF81000BA4A126808
:103CD0005178B94A5268107804AB012200F0A7FA73
:103CE00010B14FF0FF3076E7B9F1000F07D0B248BE
:103CF000806A807A40F0E0008DF8100004E0AE4861
:103D0000806A807A8DF81000AB4A12689179AA4ACD
:103D10005268107804AB012200F089FA10B14FF01C
:103D2000FF3058E7B9F1000F07D0A348806AC07A86
:103D300040F0E0008DF8100003E0A048C07A8DF854
:103D400010009D4A1268D1799B4A5268107804ABE2
:103D5000012200F06CFA10B14FF0FF303BE7B9F1EF
:103D6000000F02D0C820FEF7E7FF40208DF81000BA
:103D7000914A12681179904A5268107804AB012276
:103D800000F055FA10B14FF0FF3024E778208DF89D
:103D90001000894A12685179874A5268107804AB3A
:103DA000012200F044FA10B14FF0FF3013E78349CD
:103DB0008889FEF7C1FF00208DF810007E4A126846
:103DC00051797D4A5268107804AB012200F02FFA35
:103DD00010B14FF0FF30FEE6774A1268917A764ACA
:103DE0005268107804AB022200F0E6F910B14FF0EF
:103DF000FF30F0E69DF811009DF8101040EA012B0D
:103E00000C209BFBF0F0C6B20020A8606860286020
:103E1000A06060602060824665E0674A1268D17ADF
:103E2000654A5268107804AB0C2200F0C5F910B155
:103E30004FF0FF30CFE69DF811009DF8101040EADA
:103E4000012000B2ADF808009DF813009DF8121093
:103E500040EA012000B2ADF80A009DF815009DF877
:103E6000141040EA012000B2ADF80C00BDF90810B2
:103E7000206808442060BDF90A106068084460604A
:103E8000BDF90C10A0680844A0609DF817009DF8CB
:103E9000161040EA012000B2ADF800009DF81900AC
:103EA0009DF8181040EA012000B2ADF802009DF81C
:103EB0001B009DF81A1040EA012000B2ADF8040082
:103EC000BDF90010286808442860BDF90210686830
:103ED00008446860BDF90410A8680844A8600AF1A5
:103EE000010000F0FF0AB24597DB3448D0F800C06B
:103EF0002868C117090441EA1041070462460023FB
:103F00003846FCF711F932460023CDE90201FCF7EF
:103F10000BF928602948D0F800C06868C117090467
:103F200041EA10410704624600233846FCF7FCF8DA
:103F300032460023CDE90201FCF7F6F868601F481D
:103F4000D0F800C0A868C117090441EA104107046D
:103F5000624600233846FCF7E7F832460023CDE9F5
:103F60000201FCF7E1F8A8601448D0F804C020680A
:103F7000C117090441EA104107046246002338468C
:103F8000FCF7D2F832460023CDE90201FCF7CCF869
:103F900020600A48D0F804C06068C117090441EAEB
:103FA00010410704624600233846FCF7BDF832464C
:103FB0000023CDE9020103E0840100206C5C0008CD
:103FC000FCF7B2F860601148D0F804C0A068C117CF
:103FD000090441EA10410704624600233846FCF711
:103FE000A3F832460023CDE90201FCF79DF8A0605A
:103FF000A068002804DDA068A0F58030A06003E080
:10400000A06800F58030A0600020E4E56C5C00084A
:1040100038B50446164951F824000121FDF70CF883
:10402000144951F824000121FDF71AFB124830F819
:10403000240080B2ADF8000018208DF803000320A2
:104040008DF802000D4951F824006946FCF768FF1D
:104050000B4830F8240080B2ADF8000004208DF841
:104060000300064951F824006946FCF759FF38BDA2
:10407000F401002070000020840000205C0000207B
:104080009800002008B501210420FDF7E9FA01207D
:10409000ADF8000000208DF8030069460148FCF7E8
:1040A0003FFF08BD000801402DE9FC5F06460F46B2
:1040B00000253D494968087801AB03220D2100F035
:1040C0007BF810B10720BDE8FC9F9DF8040000F0CC
:1040D0001F008DF804009DF8050000F01F008DF80A
:1040E00005009DF8060000F01F008DF80600002472
:1040F00056E056F8240057F82410A0EB010BBBF152
:10410000000F01DB594601E0CBF100010846FCF746
:10411000ABFA4FF08F410090FCF7E0F8814601A820
:10412000005D68B321490868FCF7A7FA8346594641
:104130001F48FCF7D3F8804604E01E494046FCF7D0
:104140009BF8804601A8005D401EC0B201A9085539
:104150000028F2D141464846FCF7C0F883464FF0AC
:104160007E51FCF783F882462AF0004B0F488169A4
:104170005846FCF7EDFA12D20120A04005430EE0AC
:104180000A4801694846FCF7D9FA05D3074841694E
:104190004846FCF7DDFA02D20120A0400543641C2A
:1041A000032CA6DB28468EE7840100206C5C000807
:1041B00000B04C4554E3853F2DE9F04106460F46DB
:1041C00014461D46FDF772F810B90120BDE8F081D4
:1041D0007106080EFDF738F8FDF7C0F818B9FDF7BD
:1041E00099F80120F2E73846FDF72EF8FDF7B6F80A
:1041F000FDF75CF8012101EB4601C8B2FDF724F898
:10420000FDF7ACF80DE0012C04D10020FCF7E4FF31
:10421000287003E00120FCF7DFFF28706D1C601E92
:10422000C4B2002CEFD1FDF775F80020CEE72DE9E0
:10423000F04105460E4617469846FDF737F810B987
:104240000120BDE8F0816906080EFCF7FDFFFDF7CF
:1042500085F818B9FDF75EF80120F2E73046FCF763
:10426000F3FFFDF77BF800240BE018F80400FCF7DF
:10427000EBFFFDF773F818B9FDF74CF80020E0E705
:10428000641CBC42F1DBFDF745F80020D9E770B5AE
:104290000546284600F00FF80446E81C00F00BF82D
:1042A00044EAC00084B2A81D00F005F844EA80107A
:1042B00084B2204670BD014691F90020002A01DD3C
:1042C00000201EE091F90020002A01DA042018E005
:1042D00091F90120002A01DD012012E091F901206D
:1042E000002A01DA05200CE091F90220002A01DD04
:1042F000022006E091F90220002A01DA062000E0FF
:10430000072070474FF4A060FDF772F901210846BD
:10431000FDF7A6F901210E48FCF78EFEFEF7EAFC38
:1043200000F02CF8FEF77EF94FF4E131022001F0A5
:1043300091FB4FF4E131012001F0AAFB4FF4E13190
:10434000032001F0A7F9322000F004F800BFFEE7D7
:104350000002300010B50446204601F0A9F8012201
:1043600011460548FDF7DBFC00F0C7FF01210248BC
:10437000FDF7C9FC10BD00000008004010B5FCF7B7
:10438000EFFEFDF7ACF8C820FEF7D6FCFCF740FDC9
:10439000C820FEF7D1FC10BD70B50446002624F0FD
:1043A0000104184890F8240008B1002070BD154899
:1043B000807A10B94FF0FF30F8E71248057C807A18
:1043C0002040104908740846007CA04202D04FF0FB
:1043D000FF3600E0002614B90A48007D18B101201C
:1043E00000F0F8FF02E0002000F0F4FF3CB100F024
:1043F00035FB20B1034805744FF0FF30D6E7304657
:10440000D4E700008401002001461148407A30B111
:10441000012807D0022808D003280CD108E0022088
:1044200008700BE00420087008E00820087005E020
:104430001020087002E04FF0FF30704700BF0448C2
:10444000C07C18B108784006000E08700020F4E720
:104450008401002001461348407A30B1012808D079
:1044600002280AD0032810D10BE04FF480400880C6
:104470000EE041F69C7008800AE04FF480500880FE
:1044800006E04FF40060088002E04FF0FF30704714
:1044900000BF0448C07C10B108884010088000208C
:1044A000F5E700008401002001460248007C087006
:1044B000002070478401002001460F48007A30B187
:1044C000012807D0022809D003280FD10AE0FA20DA
:1044D00008800EE04FF4FA7008800AE04FF47A701A
:1044E000088006E04FF4FA60088002E000200880AF
:1044F00000BF00BF002070478401002001460E4825
:10450000007A30B1012807D0022808D003280CD146
:1045100008E00A4808600BE00948086008E009481C
:10452000086005E00848086002E04FF0FF3070477F
:1045300000BF0020FBE700008401002000000343CF
:104540000000834233330342333383410146124830
:10455000C07A082817D2DFE800F01704070A0D1008
:104560001318BC20088013E06220088010E02A2085
:1045700008800DE0142008800AE00A20088007E087
:104580000520088004E000BF00BF0020088000BFB5
:1045900000BF00207047000084010020014606484B
:1045A00090F8240010B14FF0FF3070470248C089E6
:1045B00008800020F9E700008401002010B5FDF715
:1045C000C9F80648006806490860064800680649B8
:1045D0000860064800680649086010BDC001002058
:1045E000F0000020C4010020F4000020C8010020D9
:1045F000F80000201CB580208DF80000604A126889
:10460000917C5F4A526810786B460122FFF70FFEDB
:1046100010B14FF0FF301CBD6420FEF78DFB002071
:104620008DF80000564A1268917C554A52681078FD
:104630006B460122FFF7FBFD10B14FF0FF30EAE7B8
:104640004F4A1268917D4E4A526810786B46062296
:10465000FFF7B2FD10B14FF0FF30DCE79DF8050029
:10466000C007400F9DF8031001F0010140EA41002E
:104670009DF8011001F0010140EA010474B1012C20
:1046800003D101213E48C17427E0022C03D100214F
:104690003B48C17421E04FF0FF30BCE7384A126854
:1046A000D178374A526810786B460122FFF784FDB3
:1046B00010B14FF0FF30AEE79DF8000000F00F049E
:1046C00014B94FF0FF30A6E7042C03D101212C4888
:1046D000C17402E000212A48C174FF212848817278
:1046E000FF2027490872FF2125484172C1724FF609
:1046F000FF71C181FF21017481740121017380F870
:104700002210002180F823104175017516300160D8
:1047100041608160163880F8241080F82510C1842B
:104720004FF4FA6000F036FC10B14FF0FF3072E742
:10473000022000F0FFFA10B14FF0FF306BE72A20A3
:1047400000F0A2FC10B14FF0FF3064E7322000F01F
:10475000DDFC10B14FF0FF305DE70020FFF71CFEDD
:1047600010B14FF0FF3056E7002000F025FB10B1EC
:104770004FF0FF304FE7002000F016FD00204AE721
:10478000840100202DE9F04385B005460E46904691
:104790009946294890F8250020B14FF0FF3005B028
:1047A000BDE8F08316B94FF0FF30F8E7002423E0AE
:1047B000281B102801DD102000E0281B87B23219C9
:1047C0003946204600F058FD10B14FF0FF30E6E7C3
:1047D00001AA3946204600F001F910B14FF0FF3030
:1047E000DDE730193A4601A9FBF7E1FC10B16FF0A3
:1047F0000100D4E7E01984B2AC42D9DB4FEA2820AB
:104800008DF8000008F0FF008DF801000A4A1268D8
:10481000917E094A526810786B460222FFF707FD25
:1048200010B14FF0FF30BAE70121034880F825109E
:10483000A0F826900020B2E78401002038B5044695
:10484000282C02DD4FF0FF3038BDDCB9002000F02D
:10485000E5FB00208DF8000007208DF801002E4AAE
:104860001268917C2C4A526810786B460222FFF73E
:10487000DEFC10B14FF0FF30E6E70021264801755D
:104880000020E1E7012000F0C9FB20208DF80000A6
:10489000012C06D100208DF80100052000F0F4FB6A
:1048A00017E0052C06DC01208DF80100052000F042
:1048B000EBFB0EE0142C06DC02208DF801000A2030
:1048C00000F0E2FB05E003208DF80100142000F069
:1048D000DBFB9DF80100072101EB8010C0B28DF8D1
:1048E00001000D4A1268917C0B4A526810786B46A1
:1048F0000222FFF79CFC10B14FF0FF30A4E7082123
:104900000548817200210173012101750020FFF724
:1049100043FD002098E7000084010020F8B504461C
:104920000F4616462C4890F8240010B94FF0FF307F
:10493000F8BD2948807A10B94FF0FF30F8E7264AD1
:104940001268917A244A526810786B460222FFF767
:1049500033FC10B14FF0FF30EAE79DF801009DF8FD
:10496000001040EA0125A54203DA00203070401E05
:10497000DEE7194840684088B5EB600F17DD164A3E
:104980001268517C144A526810786B460122FFF776
:1049900013FC10B14FF0FF30CAE79DF8000000F0A3
:1049A000100020B100F05AF86FF00100C0E7E2B249
:1049B000094B1B68D97A084B5B6818783B46FFF7B0
:1049C000FBFB10B14FF0FF30B2E795FBF4F0401E57
:1049D00030700020ACE7000084010020F8B50446E8
:1049E0000D46164616B94FF0FF30F8BD1A48807ACA
:1049F00010B94FF0FF30F8E720128DF80000E0B258
:104A00008DF801009DF8010028441349496849893F
:104A1000884202DD4FF0FF30E7E70F4A1268117E4F
:104A20000D4A526810786B460222FFF700FC10B165
:104A30004FF0FF30D9E7EAB2074B1B68597D064BB0
:104A40005B6818783346FFF7B7FB10B14FF0FF30C3
:104A5000CBE70020C9E700008401002008B56D48BD
:104A6000807A10B94FF0FF3008BD00200090694AED
:104A70001268D17B674A526810786B460122FFF7B3
:104A8000D6FB10B14FF0FF30EEE7624A1268517961
:104A9000604A526810786B460122FFF7C8FB10B1DC
:104AA0004FF0FF30E0E75B4A12681179594A5268CB
:104AB00010786B460122FFF7BAFB10B14FF0FF30C0
:104AC000D2E7544890F82400002850D00C200090E1
:104AD000504A126811794F4A526810786B46012289
:104AE000FFF7A5FB10B14FF0FF30BDE7C0200090ED
:104AF0004848807A00F0010020B19DF8000040F0A5
:104B000020000090434A12681179424A5268107896
:104B10006B460122FFF78BFB10B14FF0FF30A3E78C
:104B20003C48407C10B10220009001E00020009041
:104B3000384A1268D17B374A526810786B46012296
:104B4000FFF775FB10B14FF0FF308DE700200090AC
:104B5000304A126851792F4A526810786B46012208
:104B6000FFF765FB002852D04FF0FF307CE70420B0
:104B70000090284A12681179264A526810786B46CC
:104B80000122FFF754FB10B14FF0FF306CE72148D2
:104B9000807C20B91F48807A00F0010010B94020C5
:104BA000009001E0602000901A4A12681179194AB9
:104BB000526810786B460122FFF739FB10B14FF0B5
:104BC000FF3051E71348407C10B10120009001E014
:104BD000002000900F4A1268D17B0E4A526810786C
:104BE0006B460122FFF723FB10B14FF0FF303BE78C
:104BF000084A12685179074A52681078054B1033F9
:104C00000122FFF714FB10B14FF0FF302CE700201A
:104C10002AE70000840100202DE9F04F8DB0834683
:104C20000F4602200C90424890F8240020B100204A
:104C300000F068F9012600E0002603A8FFF73CFC1D
:104C400005A8FFF7E1FB01A8FFF780FC02A8FFF72A
:104C5000A5FC374890F80AA004A8FFF725FC00241B
:104C600007E0002239465846FEF79CFF00B902E0F3
:104C7000641C022CF5DB00BF022C01D1002528E0CA
:104C8000002407E0012206A909A8FEF78BFF00B95E
:104C900002E0641C022CF5DB00BF022C01D10025D0
:104CA00017E006A93846FDF73DFC00F0FF0809A90A
:104CB0005846FFF7F9F900F0FF090025B9F1000F98
:104CC00001D145F00105B8F1000F01D145F0020511
:104CD00000BFFF2016490872FF2115484172C172BA
:104CE0004FF6FF71C181FF218172017401210173AF
:104CF000BDF80C0000F04EF99DF8140000F01AF811
:104D0000BDF8040000F0C0F9BDF8080000F0FEF99D
:104D1000504600F049FA9DF81000FFF73DFB16B130
:104D2000012000F0EFF828460DB0BDE8F08F00003C
:104D30008401002038B504461E48807A10B94FF02F
:104D4000FF3038BD022C06D0042C07D0082C08D028
:104D5000102C0CD108E0002000900BE008200090FF
:104D600008E01020009005E01820009002E04FF0CD
:104D7000FF30E6E700BF0F48407A9DF80010B0EB27
:104D8000E10F01D10020DCE70A4A1268D179094A13
:104D9000526810786B460122FFF749FA10B14FF0C4
:104DA000FF30CEE79DF80000C1100248417200209C
:104DB000C7E700008401002038B504465048807CD5
:104DC000A04201D1002038BD002C46D04C4A1268C8
:104DD00011794B4A526810786B460122FFF7ECF9C3
:104DE00010B14FF0FF30EEE79DF8000020F02000FA
:104DF0000090434A12681179414A526810786B4614
:104E00000122FFF714FA10B14FF0FF30DBE7032067
:104E1000FDF792FF02200090394890F8220020B15F
:104E20009DF8000040F080000090354890F8230085
:104E300020B19DF8000040F030000090304A126828
:104E4000117D2F4A526810786B460122FFF7EFF967
:104E5000002851D04FF0FF30B5E7294A1268117988
:104E6000274A526810786B460122FFF7A5F910B166
:104E70004FF0FF30A7E72248807A00F0010028B108
:104E80009DF8000040F02000009004E09DF8000034
:104E900020F0200000901A4A12681179184A5268CE
:104EA00010786B460122FFF7C2F910B14FF0FF30C6
:104EB00089E70320FDF740FF114890F8220010B168
:104EC0008020009001E0002000900D4890F8230021
:104ED00020B19DF8000040F030000090084A1268B0
:104EE000117D074A526810786B460122FFF79FF93F
:104EF00010B14FF0FF3066E701488474002062E78C
:104F00008401002038B50446214890F82400A042CE
:104F100001D1002038BD24B31D4890F8250010B9F8
:104F20004FF0FF30F6E7002000F054FA0020FFF7C2
:104F300043FF1749C88C00F0E9F80020009014499D
:104F4000496808786B4601222321FFF770F9012197
:104F50000F4880F82410012000F03CFAFFF77EFD96
:104F600013E0002000F036FA0948007C0090084960
:104F7000496808786B4601222321FFF758F9002180
:104F8000034880F82410FFF769FD0020C2E7000005
:104F90008401002038B504461F48807A10B94FF0CC
:104FA000FF3038BDFA2C09D0B4F5FA7F09D0B4F53A
:104FB0007A7F09D0B4F5FA6F0CD108E00020009098
:104FC0000BE00820009008E01020009005E0182079
:104FD000009002E04FF0FF30E3E700BF0E48007A98
:104FE0009DF80010B0EBE10F01D10020D9E70A4A8B
:104FF00012689179084A526810786B460122FFF7CF
:1050000016F910B14FF0FF30CBE79DF80000C0104B
:10501000014908720020C4E78401002038B5044625
:10502000184890F82300A04201D1002038BD14B1E7
:105030003020009001E0002000901248807C20B1D8
:105040009DF8000040F0020000900E4890F8220009
:1050500020B19DF8000040F080000090094A1268DD
:10506000117D084A526810786B460122FFF7DFF87D
:1050700010B14FF0FF30D9E7024880F823400020FC
:10508000D4E700008401002038B504461E48807A29
:1050900010B94FF0FF3038BDBC2C02DB012000906E
:1050A00015E0622C02DB0220009010E02A2C02DBCB
:1050B000032000900BE0142C02DB0420009006E09B
:1050C0000A2C02DB0520009001E0062000900E482B
:1050D000C07A9DF80010884201D10020DBE70A4A1F
:1050E00012689178084A526810786B460122FFF7DF
:1050F0009EF810B14FF0FF30CDE79DF80010024848
:10510000C1720020C7E700008401002038B50446C2
:105110002448807A10B94FF0FF3038BD214890F80C
:10512000240010B14FF0FF30F7E71E48007D50B16A
:1051300034B1282C04DCE0B2FFF780FB0020ECE760
:105140000020FFF77BFB042C01DA042404E0B4F513
:105150007A7F01DD4FF47A744FF47A7090FBF4F0AB
:10516000401EC0B200900F4A126851780D4A526832
:1051700010786B460122FFF75AF810B14FF0FF305C
:10518000CBE79DF80000401C4FF47A7191FBF0F0E2
:1051900081B20448C1810146C9894810FFF774FFF4
:1051A0000020BAE78401002038B5044604F07000FE
:1051B00010B10120009005E014B10020009001E042
:1051C000402000902B4A1268917C2A4A526810783D
:1051D0006B460122FFF72BF820B100212548817290
:1051E000481E38BD9DF8000020F0400121480173A1
:1051F0000020009004F0400020B99DF8000040F02D
:105200000400009004F0200020B99DF8000040F058
:105210000200009004F0100020B99DF8000040F05A
:105220000100009004F0080020B99DF8000040F053
:10523000380000900F4A1268D17C0E4A52681078EC
:105240006B460122FEF7F3FF20B10021094881726D
:10525000481EC6E724B1082C02D00020FFF7DEFE6E
:1052600004488472002101753220FDF765FD00209D
:10527000B7E7000084010020F8B504460D46164645
:1052800016B94FF0FF30F8BD1A48807A10B94FF0C8
:10529000FF30F8E720128DF80000E0B28DF8010031
:1052A0009DF801002844134949684989884202DD74
:1052B0004FF0FF30E7E70F4A1268117E0D4A52683F
:1052C00010786B460222FEF7B2FF10B14FF0FF30AC
:1052D000D9E7EAB2074B1B68597D064B5B68187823
:1052E0003346FEF7A4FF10B14FF0FF30CBE70020AC
:1052F000C9E7000084010020704708B51E208DF822
:10530000000001208DF8030002208DF801008DF8C7
:1053100002006846FCF734F908BD000038B50446C1
:105320000748005D8DF8000001208DF801008DF820
:1053300002008DF803006846FCF722F938BD000032
:10534000AC00002070B588B002A905A8FFF764FC86
:105350000446032C3CD101A8FFF7D0F80598FBF7D1
:1053600083F906460199FAF787FF0546FBF78AF9A4
:1053700005900698FBF778F906460199FAF77CFF45
:105380000546FBF77FF906900798FBF76DF906468F
:105390000199FAF771FF0546FBF774F9079005A824
:1053A000FEF7F2F86846FFF755F8BDF800100298CE
:1053B00048430290BDF80010039848430390BDF89D
:1053C000001004984843049002A8FEF70DF800BFAF
:1053D00008B070BD38B50446214890F82400C0B12B
:1053E00014B10220009001E0002000901C4A1268D5
:1053F000D17B1B4A526810786B460122FEF717FFDB
:1054000010B14FF0FF3038BD9DF8001014484174C2
:1054100023E01348807A10B94FF0FF30F3E724B14E
:105420000F48407C08B10020EDE714B10120009046
:1054300001E0002000900A4A1268D17B084A5268B5
:1054400010786B460122FEF7F2FE10B14FF0FF30EC
:10545000D9E79DF80010024841740020D3E700000E
:10546000840100202DE9F04106460F46FBF7C8FAFB
:10547000041E0D4618BF0120284320F00040C0F153
:105480007F6000F1E040C00F0ED0301C18BF01203B
:10549000384320F00040C0F17F6000F1E040C00FD1
:1054A00004BF0120FCF796FE20462946BDE8F081A6
:1054B0003EB5044601210420FCF7C2F840F2CF209B
:1054C000ADF80000642104FB01F0401E80B2ADF88D
:1054D00004000020ADF80200ADF80600694605485A
:1054E000FCF726FC642104FB01F0401E0249088001
:1054F0003EBD000000080040180000202DE9F84FD4
:1055000004460E4617469846DDE90AAB601E604920
:1055100001EBC010451C4FF000097B200090601E7D
:1055200001EBC0104670601E01EBC0108770601E5A
:1055300001EBC01080F80380601E01EBC010C0F8C2
:1055400004A0601E01EBC010C0F808B0611E504AF4
:1055500002EBC1110C98C860611E02EBC1110D98DD
:105560000861611E02EBC1110E984861611E02EBD9
:10557000C1110F988861611E02EBC1111098C861BA
:10558000611E02EBC11111980862611E02EBC1118C
:1055900012984862611E02EBC11113988862611E65
:1055A00002EBC1111498C862611E02EBC11115987B
:1055B0000863611E02EBC11116984863611E02EB7D
:1055C000C11117988863611E02EBC1111898C86356
:1055D000611E02EBC11119980864611E02EBC11132
:1055E0001A984864611E02EBC1111B988864611E01
:1055F00002EBC1111C98C864611E02EBC1111D9819
:105600000865611E02EBC1111E984865611E02EB20
:10561000C1111F988865611E02EBC1112098C865F1
:10562000611E02EBC11121980866611E02EBC111D7
:1056300022984866611E02EBC11123988866611E9C
:1056400002EBC1112498C866611E02EBC1112598B6
:105650000867611E02EBC11126984867611E02EBC4
:10566000C1112798886705E015F8011B01EB0900B7
:1056700000F0FF090098411E89B200910028F3D183
:1056800085F80090204600F089FABDE8F88F000008
:10569000680600203EB504460D46601E104901EB29
:1056A00080007E22611E0F4B03EBC111CDE9001279
:1056B0000290601E0C4901EBC0127E232946204651
:1056C00000F00EFAA521601E074A02EBC01001701F
:1056D0005A21601E02EBC01080F87D103EBD000014
:1056E000680A002068080020680600202DE9F04FB5
:1056F000044609AD95E8E010DDE90E9ADDF8348046
:10570000601EDFF848B35BF8200000287DD0601EE3
:10571000C0EBC00000EB8000DFF834B3584490F8D1
:1057200003B0601EC0EBC00000EB8000DFF820E398
:10573000704480784FF4807E0EFB00B00860601EDD
:10574000C0EBC00000EB8000DFF804B3584490F8D1
:1057500005B0601EC0EBC00000EB8000DFF8F0E297
:10576000704400794FF4807E0EFB00B01060601E24
:10577000C0EBC00000EB8000DFF8D4B2584490F8D2
:1057800007B0601EC0EBC00000EB8000DFF8C0E295
:10579000704480794FF4807E0EFB00B01860601E6C
:1057A000C0EBC00000EB8000DFF8A4B2584490F8D2
:1057B00009B0601EC0EBC00000EB8000DFF890E293
:1057C0007044007A4FF4807E0EFB00B02860601EAB
:1057D000C0EBC00000EB8000DFF874B2584490F8D2
:1057E0000BB0601EC0EBC00000EB8000DFF860E291
:1057F0007044807A4FF4807E0EFB00B03060601EF3
:10580000C0EBC00000EB800000E01DE1DFF840B21B
:10581000584490F80DB0601EC0EBC00000EB800053
:10582000DFF82CE27044007B4FF4807E0EFB00B06A
:105830003860601EC0EBC00000EB8000DFF810B2E3
:10584000584490F80FB0601EC0EBC00000EB800021
:10585000DFF8FCE17044807B4FF4807E0EFB00B0EB
:10586000CCF80000601EC0EBC00000EB8000DFF849
:10587000E0B1584490F811B0601EC0EBC00000EBDE
:105880008000DFF8CCE17044007C4FF4807E0EFB9A
:1058900000B0C8F80000601EC0EBC00000EB800044
:1058A000DFF8ACB1584490F813B0601EC0EBC000F4
:1058B00000EB8000DFF898E17044807C4FF4807E3C
:1058C0000EFB00B0C9F80000601EC0EBC00000EB8A
:1058D0008000DFF87CB1584490F815B0601EC0EB32
:1058E000C00000EB8000DFF868E17044007D4FF4F9
:1058F000807E0EFB00B0CAF80000601EC0EBC00046
:1059000000EB8000DFF848B1584490F817B0601EF3
:10591000C0EBC00000EB8000DFF834E17044807D14
:105920004FF4807E0EFB00BB1098C0F800B0601EE4
:10593000C0EBC00000EB8000DFF814B1584490F8D1
:1059400019B0601EC0EBC00000EB8000DFF800E182
:105950007044007E4FF4807E0EFB00BB1198C0F8AF
:1059600000B0601EC0EBC00000EB8000DFF8E0B0CC
:10597000584490F81BB0601EC0EBC00000EB8000E4
:10598000DFF8CCE07044807E4FF4807E0EFB00BBDD
:105990001298C0F800B0601EC0EBC00000EB8000A1
:1059A000DFF8ACB0584490F81DB0601EC0EBC000EA
:1059B00000EB8000DFF898E07044007F4FF4807EB9
:1059C0000EFB00BB1398C0F800B0601EC0EBC00017
:1059D00000EB8000DFF878B0584490F81FB0601EEC
:1059E000C0EBC00000EB8000DFF864E07044807F13
:1059F0004FF4807E0EFB00BB1498C0F800B0601E10
:105A0000C0EBC00000EB8000DFF844B0584490F8D1
:105A100021B0601EC0EBC00000EB8000DFF830E07A
:105A2000704490F820004FF4807E0EFB00BB159868
:105A3000C0F800B04FF0000B601EDFF810E04EF829
:105A400020B00120BDE8F08F0020FBE7F80C00201B
:105A50006C0C00203EB504460D46601E0A4901EB61
:105A600080002322611EC1EBC10101EB8101074BC4
:105A700019440023CDE9001202901A462946204617
:105A800000F02EF83EBD0000F80C00206C0C002049
:105A90003EB504460D46601E0E4901EB80003222E1
:105AA000611E01EBC10303EB01110B4B03EB410141
:105AB000CDE900120290601E00EB800101EBC000F6
:105AC000064901EB800234232946204600F008F8FD
:105AD0003EBD0000200C0020580B0020780A00205A
